:020000040800F2
:1000000000C00020C1380008551C0008591C000819
:100010005D1C0008611C0008651C00080000000051
:10002000000000000000000000000000691C000843
:100030006D1C000800000000711C0008751C000801
:100040000939000809390008093900080939000888
:100050000939000809390008093900080939000878
:100060000939000809390008093900080939000868
:100070000939000809390008093900080939000858
:100080000939000809390008093900080939000848
:100090000939000809390008093900080939000838
:1000A0000939000809390008093900080939000828
:1000B000791C0008093900080939000809390008C5
:1000C0000939000809390008093900080939000808
:1000D00009390008093900080939000809390008F8
:1000E00009390008093900080939000809390008E8
:1000F00009390008093900080939000809390008D8
:1001000009390008093900080939000809390008C7
:1001100009390008093900080939000809390008B7
:1001200009390008093900080939000809390008A7
:1001300000000000000000000000000000000000BF
:1001400000000000000000000000000000000000AF
:10015000000000000000000000000000000000009F
:10016000000000000000000000000000000000008F
:10017000000000000000000000000000000000007F
:10018000000000000000000000000000000000006F
:10019000000000000000000000000000000000005F
:1001A000000000000000000000000000000000004F
:1001B000000000000000000000000000000000003F
:1001C000000000000000000000000000000000002F
:1001D000000000000000000000000000000000001F
:0401E0005FF8E0F1F3
:1001E80010B5054C237833B9044B13B10448AFF369
:1001F80000800123237010BD280A002000000000A1
:10020800B499000808B5034B1BB103490348AFF381
:10021800008008BD000000002C0A0020B4990008E6
:100228004FF0FF0C1CEAD0521EBF1CEAD15392EAD1
:100238000C0F93EA0C0F6FD01A4480EA010C4002AD
:1002480018BF5FEA41211ED04FF0006343EA501007
:1002580043EA5111A0FB01310CF00040B1F5000F49
:100268003EBF490041EAD3715B0040EA010062F1F8
:100278007F02FD2A1DD8B3F1004F40EBC25008BFE2
:1002880020F00100704790F0000F0CF0004C08BF00
:1002980049024CEA502040EA51207F3AC2BFD2F1CD
:1002A800FF0340EAC250704740F400004FF00003DB
:1002B800013A5DDC12F1190FDCBF00F00040704715
:1002C800C2F10002410021FA02F1C2F1200200FA53
:1002D80002FC5FEA310040F1000053EA4C0308BF1A
:1002E80020EADC70704792F0000F00F0004C02BF6B
:1002F800400010F4000F013AF9D040EA0C0093F0E6
:10030800000F01F0004C02BF490011F4000F013B3F
:10031800F9D041EA0C018FE70CEAD15392EA0C0FAD
:1003280018BF93EA0C0F0AD030F0004C18BF31F018
:10033800004CD8D180EA010000F00040704790F0EE
:10034800000F17BF90F0004F084691F0000F91F092
:10035800004F14D092EA0C0F01D142020FD193EA58
:100368000C0F03D14B0218BF084608D180EA0100E0
:1003780000F0004040F0FE4040F40000704740F0BC
:10038800FE4040F44000704781F0004102E000BFA9
:1003980083F0004330B54FEA41044FEA430594EA3D
:1003A800050F08BF90EA020F1FBF54EA000C55EA78
:1003B800020C7FEA645C7FEA655C00F0E2804FEA49
:1003C8005454D4EB5555B8BF6D420CDD2C4480EA2B
:1003D800020281EA030382EA000083EA010180EA5B
:1003E800020281EA0303362D88BF30BD11F0004FA9
:1003F8004FEA01314FF4801C4CEA113102D04042DF
:1004080061EB410113F0004F4FEA03334CEA133319
:1004180002D0524263EB430394EA050F00F0A78031
:10042800A4F10104D5F1200E0DDB02FA0EFC22FA2C
:1004380005F2801841F1000103FA0EF2801843FA20
:1004480005F359410EE0A5F120050EF1200E012A11
:1004580003FA0EFC28BF4CF0020C43FA05F3C0184F
:1004680051EBE37101F0004507D54FF0000EDCF1C8
:10047800000C7EEB00006EEB0101B1F5801F1BD371
:10048800B1F5001F0CD349085FEA30004FEA3C0C75
:1004980004F101044FEA445212F5800F80F09A806B
:1004A800BCF1004F08BF5FEA500C50F1000041EB6F
:1004B800045141EA050130BD5FEA4C0C404141EB73
:1004C8000101013C28BFB1F5801FE9D291F0000F6E
:1004D80004BF01460020B1FA81F308BF2033A3F11D
:1004E8000B03B3F120020CDA0C3208DD02F1140C14
:1004F800C2F10C0201FA0CF021FA02F10CE002F14F
:100508001402D8BFC2F1200C01FA02F120FA0CFC47
:10051800DCBF41EA0C019040E41AA2BF01EB045190
:10052800294330BD6FEA04041F3C1CDA0C340EDC8E
:1005380004F11404C4F1200220FA04F001FA02F3D1
:1005480040EA030021FA04F345EA030130BDC4F18F
:100558000C04C4F1200220FA02F001FA04F340EA84
:100568000300294630BD21FA04F0294630BD94F035
:10057800000F83F4801306BF81F480110134013D1C
:100588004EE77FEA645C18BF7FEA655C29D094EA8D
:10059800050F08BF90EA020F05D054EA000C04BF0B
:1005A8001946104630BD91EA030F1EBF00210020F6
:1005B80030BD5FEA545C05D14000494128BF41F095
:1005C800004130BD14F580043CBF01F5801130BDF9
:1005D80001F0004545F0FE4141F470014FF0000084
:1005E80030BD7FEA645C1ABF194610467FEA655C35
:1005F8001CBF0B46024650EA013406BF52EA0335D7
:1006080091EA030F41F4002130BD00BF90F0000FC4
:1006180004BF0021704730B54FF4806404F1320400
:100628004FF000054FF0000150E700BF90F0000FB9
:1006380004BF0021704730B54FF4806404F13204E0
:1006480010F0004548BF40424FF000013EE700BFB0
:1006580042004FEAE2014FEA31014FEA02701FBF40
:1006680012F07F4393F07F4F81F06051704732F072
:100678007F4208BF704793F07F4F04BF41F40021C9
:10068800704730B54FF4607401F0004521F0004127
:100698001CE700BF50EA010208BF704730B54FF0B1
:1006A80000050AE050EA010208BF704730B511F0B2
:1006B800004502D5404261EB41014FF4806404F1EA
:1006C80032045FEA915C3FF4D8AE4FF003025FEA70
:1006D800DC0C18BF03325FEADC0C18BF033202EBF4
:1006E800DC02C2F1200300FA03FC20FA02F001FA4E
:1006F80003FE40EA0E0021FA02F11444BDE600BFF1
:1007080080F0004002E000BF81F0004142001FBFBE
:100718005FEA410392EA030F7FEA226C7FEA236CC7
:100728006AD04FEA1262D2EB1363C1BFD2184140BC
:1007380048404140B8BF5B42192B88BF704710F052
:10074800004F40F4000020F07F4018BF404211F0F5
:10075800004F41F4000121F07F4118BF494292EA5D
:10076800030F3FD0A2F1010241FA03FC10EB0C0089
:10077800C3F1200301FA03F100F0004302D5494216
:1007880060EB4000B0F5000F13D3B0F1807F06D3C3
:1007980040084FEA310102F10102FE2A51D2B1F1BB
:1007A800004F40EBC25008BF20F0010040EA0300B0
:1007B8007047490040EB0000013A28BFB0F5000F30
:1007C800EDD2B0FA80FCACF1080CB2EB0C0200FAE6
:1007D8000CF0AABF00EBC25052421843BCBFD04035
:1007E8001843704792F0000F81F4000106BF80F4AF
:1007F80000000132013BB5E74FEA41037FEA226C72
:1008080018BF7FEA236C21D092EA030F04D092F03C
:10081800000F08BF0846704790EA010F1CBF002070
:10082800704712F07F4F04D1400028BF40F00040CD
:10083800704712F100723CBF00F50000704700F0ED
:10084800004343F0FE4040F4000070477FEA226214
:1008580016BF08467FEA23630146420206BF5FEAE5
:10086800412390EA010F40F4800070474FF00003E5
:1008780004E000BF10F0004348BF40425FEA000CAC
:1008880008BF704743F0964301464FF000001CE054
:1008980050EA010208BF70474FF000030AE000BFAA
:1008A80050EA010208BF704711F0004302D54042E8
:1008B80061EB41015FEA010C02BF8446014600205A
:1008C80043F0B64308BFA3F18053A3F50003BCFA75
:1008D8008CF2083AA3EBC25310DB01FA02FC634422
:1008E80000FA02FCC2F12002BCF1004F20FA02F229
:1008F80043EB020008BF20F00100704702F120021C
:1009080001FA02FCC2F1200250EA4C0021FA02F27C
:1009180043EB020008BF20EADC7070474FF0FF3C51
:1009280006E000BF4FF0010C02E000BF4FF0010CE1
:100938004DF804CD4FEA40024FEA41037FEA226CAA
:1009480018BF7FEA236C11D001B052EA530C18BFCC
:1009580090EA010F58BFB2EB030088BFC81738BF31
:100968006FEAE17018BF40F0010070477FEA226C1F
:1009780002D15FEA402C05D17FEA236CE4D15FEA1B
:10098800412CE1D05DF8040B704700BF844608464F
:100998006146FFE70FB5FFF7C9FF002848BF10F110
:1009A800000F0FBD4DF808EDFFF7F4FF0CBF012055
:1009B80000205DF808FB00BF4DF808EDFFF7EAFFDF
:1009C80034BF012000205DF808FB00BF4DF808ED9A
:1009D800FFF7E0FF94BF012000205DF808FB00BF8F
:1009E8004DF808EDFFF7D2FF94BF012000205DF815
:1009F80008FB00BF4DF808EDFFF7C8FF34BF012022
:100A080000205DF808FB00BF42000ED2B2F1FE4F95
:100A18000BD34FF09E03B3EB126209D44FEA0023C5
:100A280043F0004323FA02F070474FF0000070478C
:100A380012F1610F01D1420202D14FF0FF3070472D
:100A48004FF00000704700BF844641EA000313F0EE
:100A5800030349D1403A23D30B6803604B684360D2
:100A68008B688360CB68C3600B6903614B69436122
:100A78008B698361CB69C3610B6A03624B6A43620A
:100A88008B6A8362CB6AC3620B6B03634B6B4363F2
:100A98008B6B8363CB6BC36340304031403ADBD20E
:100AA80030320BD30B6803604B6843608B688360FC
:100AB800CB68C36010301031103AF3D20C3205D332
:100AC80051F8043B40F8043B043AF9D2043208D008
:100AD800D2071CBF11F8013B00F8013B01D30B887A
:100AE80003806046704700BF082A13D38B07B1D034
:100AF80010F00303AED0C3F10403D21ADB071CBF06
:100B080011F8013B00F8013BA4D331F8023B20F86F
:100B1800023B9FE7043AD9D3013A11F8013B00F8A8
:100B2800013BF9D20B7803704B7843708B78837054
:100B38006046704770B54FF0FF0C4CF4E06C1CEA4F
:100B480011541DBF1CEA135594EA0C0F95EA0C0FBB
:100B580000F0DEF82C4481EA030621EA4C5123EA2E
:100B68004C5350EA013518BF52EA033541F480115D
:100B780043F4801338D0A0FB02CE4FF00005E1FB10
:100B880002E506F00042E0FB03E54FF00006E1FB5A
:100B980003569CF0000F18BF4EF0010EA4F1FF049D
:100BA800B6F5007F64F5407404D25FEA4E0E6D41DD
:100BB80046EB060642EAC62141EA55514FEAC520EE
:100BC80040EA5E504FEACE2EB4F1FD0C88BFBCF56A
:100BD800E06F1ED8BEF1004F08BF5FEA500E50F11B
:100BE800000041EB045170BD06F0004646EA0101E1
:100BF80040EA020081EA0301B4EB5C04C2BFD4EB13
:100C08000C0541EA045170BD41F480114FF0000E0B
:100C1800013C00F3AB8014F1360FDEBF002001F079
:100C2800004170BDC4F10004203C35DA0C341BDCF3
:100C380004F11404C4F1200500FA05F320FA04F0C5
:100C480001FA05F240EA020001F0004221F00041F9
:100C580010EBD37021FA04F642EB06015EEA430E6C
:100C680008BF20EAD37070BDC4F10C04C4F120059C
:100C780000FA04F320FA05F001FA04F240EA02004F
:100C880001F0004110EBD37041F100015EEA430E20
:100C980008BF20EAD37070BDC4F1200500FA05F240
:100CA8004EEA020E20FA04F301FA05F243EA0203BF
:100CB80021FA04F001F0004121FA04F220EA0200CE
:100CC80000EBD3705EEA430E08BF20EAD37070BD14
:100CD80094F0000F0FD101F00046400041EB0101F4
:100CE80011F4801F08BF013CF7D041EA060195F0D6
:100CF800000F18BF704703F00046520043EB030390
:100D080013F4801F08BF013DF7D043EA060370477C
:100D180094EA0C0F0CEA135518BF95EA0C0F0CD087
:100D280050EA410618BF52EA4306D1D181EA0301CD
:100D380001F000414FF0000070BD50EA410606BFC7
:100D48001046194652EA430619D094EA0C0F02D10C
:100D580050EA013613D195EA0C0F05D152EA033651
:100D68001CBF104619460AD181EA030101F000416F
:100D780041F0FE4141F470014FF0000070BD41F0B8
:100D8800FE4141F4780170BD70B54FF0FF0C4CF492
:100D9800E06C1CEA11541DBF1CEA135594EA0C0FB1
:100DA80095EA0C0F00F0A7F8A4EB050481EA030EFE
:100DB80052EA03354FEA013100F088804FEA0333E5
:100DC8004FF0805545EA131343EA12634FEA0222B3
:100DD80045EA111545EA10654FEA00260EF0004174
:100DE8009D4208BF964244F1FD0404F5407402D2C6
:100DF8005B084FEA3202B61A65EB03055B084FEA57
:100E080032024FF480104FF4002CB6EB020E75EB53
:100E1800030E22BFB61A754640EA0C005B084FEA7B
:100E28003202B6EB020E75EB030E22BFB61A7546F8
:100E380040EA5C005B084FEA3202B6EB020E75EB43
:100E4800030E22BFB61A754640EA9C005B084FEABB
:100E58003202B6EB020E75EB030E22BFB61A7546C8
:100E680040EADC0055EA060E18D04FEA051545EAB7
:100E780016754FEA06164FEAC30343EA52734FEA60
:100E8800C2025FEA1C1CC0D111F4801F0BD141EAD9
:100E980000014FF000004FF0004CB6E711F4801F3E
:100EA80004BF01430020B4F1FD0C88BFBCF5E06F1E
:100EB8003FF6AFAEB5EB030C04BFB6EB020C5FEA2E
:100EC800500C50F1000041EB045170BD0EF0004E83
:100ED8004EEA113114EB5C04C2BFD4EB0C0541EAB5
:100EE800045170BD41F480114FF0000E013C90E6B2
:100EF80045EA060E8DE60CEA135594EA0C0F08BF76
:100F080095EA0C0F3FF43BAF94EA0C0F0AD150EA74
:100F180001347FF434AF95EA0C0F7FF425AF104607
:100F280019462CE795EA0C0F06D152EA03353FF42F
:100F3800FDAE1046194622E750EA410618BF52EAAC
:100F480043067FF4C5AE50EA41047FF40DAF52EA80
:100F580043057FF4EBAE12E74FF0FF3C06E000BF1D
:100F68004FF0010C02E000BF4FF0010C4DF804CD2A
:100F78004FEA410C7FEA6C5C4FEA430C18BF7FEAEA
:100F88006C5C1BD001B050EA410C0CBF52EA430C18
:100F980091EA030F02BF90EA020F0020704710F198
:100FA800000F91EA030F58BF994208BF90422CBF27
:100FB800D8176FEAE37040F0010070474FEA410C20
:100FC8007FEA6C5C02D150EA013C07D14FEA430C3E
:100FD8007FEA6C5CD6D152EA033CD3D05DF8040BAF
:100FE800704700BF8446104662468C4619466346E1
:100FF80000E000BF01B5FFF7B7FF002848BF10F1B8
:10100800000F01BD4DF808EDFFF7F4FF0CBF0120FC
:1010180000205DF808FB00BF4DF808EDFFF7EAFF78
:1010280034BF012000205DF808FB00BF4DF808ED33
:10103800FFF7E0FF94BF012000205DF808FB00BF28
:101048004DF808EDFFF7CEFF94BF012000205DF8B2
:1010580008FB00BF4DF808EDFFF7C4FF34BF0120BF
:1010680000205DF808FB00BF4FEA410C7FEA6C5C8A
:1010780002D150EA013C0AD14FEA430C7FEA6C5C8A
:1010880002D152EA033C02D14FF0000070474FF002
:10109800010070474FEA410212F5001215D211D52E
:1010A8006FF47873B3EB625212D94FEAC12343F05D
:1010B800004343EA505311F0004F23FA02F018BFDF
:1010C800404270474FF00000704750EA013005D1A8
:1010D80011F0004008BF6FF0004070474FF000006B
:1010E800704700BF53B94AB9002908BF00281CBF80
:1010F8004FF0FF314FF0FF3000F076B9ADF1080C3A
:101108006DE904CE00F006F8DDF804E0DDE902231D
:1011180004B070472DE9F047089E0D4604468846FE
:10112800002B4DD18A42944668D9B2FA82F252B164
:1011380001FA02F3C2F1200120FA01F10CFA02FCD3
:1011480041EA030894404FEA1C41B8FBF1F71FFA43
:101158008CFE01FB178807FB0EF0230C43EA0843BB
:1011680098420AD91CEB030307F1FF3580F01E8172
:10117800984240F21B81023F63441B1AB3FBF1F013
:1011880001FB103300FB0EFEA4B244EA0344A6455B
:101198000AD91CEB040400F1FF3380F00981A6454D
:1011A80040F20681644402380021A4EB0E0440EAB0
:1011B80007401EB10023D440C6E90043BDE8F087CC
:1011C8008B4208D9002E00F0EE800021C6E9000508
:1011D8000846BDE8F087B3FA83F100294AD1AB424B
:1011E80002D3824200F2FC80841A65EB03030120DB
:1011F8009846002EE2D0C6E90048DFE702B9FFDED4
:10120800B2FA82F2002A40F09180A1EB0C00012191
:101218004FEA1C471FFA8CFEB0FBF7F307FB1300DD
:10122800250C45EA00450EFB03F0A84208D91CEB43
:10123800050503F1FF3802D2A84200F2CE804346EA
:101248002D1AB5FBF7F007FB10550EFB00FEA4B2F4
:1012580044EA0544A64508D91CEB040400F1FF350F
:1012680002D2A64500F2B6802846A4EB0E0440EA56
:1012780003409EE7C1F120078B4022FA07FC4CEAA5
:10128800030C25FA07FA4FEA1C49BAFBF9F820FAC9
:1012980007F309FB18AA8D401FFA8CFE1D4300FABC
:1012A80001F308FB0EF02C0C44EA0A44A04202FAAF
:1012B80001F20BD91CEB040408F1FF3A80F0888096
:1012C800A04240F28580A8F102086444241AB4FBC5
:1012D800F9F009FB104400FB0EFEADB245EA0444E8
:1012E800A64508D91CEB040400F1FF356CD2A645CD
:1012F8006AD90238644440EA0840A0FB0295A4EB8E
:101308000E04AC42C846AE4656D353D0002E69D020
:10131800B3EB080264EB0E0422FA01F304FA07F7B0
:101328001F43CC40C6E90074002147E70CFA02FCD1
:10133800C2F1200125FA01F34FEA1C4720FA01F116
:1013480095400D43B3FBF7F107FB11331FFA8CFEF1
:10135800280C40EA034001FB0EF3834204FA02F42E
:1013680008D91CEB000001F1FF382FD283422DD998
:1013780002396044C01AB0FBF7F307FB1300ADB2A3
:1013880045EA004503FB0EF0A84208D91CEB050509
:1013980003F1FF3816D2A84214D9023B6544281A33
:1013A80043EA014138E73146304607E72F46E4E68D
:1013B8001846F9E64B45A9D2B9EB020865EB0C0EC5
:1013C8000138A3E74346EAE7284694E74146D1E7D0
:1013D800D0467BE76444023847E7023B65442FE781
:1013E800084606E73146E9E6704700BF074B08495B
:1013F8001B68084AA2FB0302A1FB0313064807491E
:1014080092099B0C02600B80704700BF700000209F
:1014180083DE1B43D34D6210440A0020480A002093
:101428004FF0E0214FF0000C0C4B10B51B684C69D5
:1014380003FB00FE8A698B699A42FCD002EB0C0020
:101448008446204405D9ACEB030CE64505D91A4679
:10145800F1E7A0EB030CE645F9D810BD440A0020DB
:101468002DE9F041002488B0CDE90444CDE90644D3
:10147800344B354E9A69DFF8D48042F020029A61E5
:101488009A69334D02F020020092009A9A69304618
:1014980042F010029A619A694FF44F7102F01002FB
:1014A8000192019A9A69022742F004029A619A69A4
:1014B80002F004020292029A9A6942F008029A61C2
:1014C8009B69224603F008030393039B01F0C0F8CD
:1014D80022464046042101F0BBF8224628464FF434
:1014E800407101F0B5F830464FF44F7200260123E1
:1014F80004A9CDE90423CDE9066700F07BFF0123A9
:101508004FF4806206930023284604A9CDE90423FA
:1015180000F070FF04220123404604A9CDE904230A
:10152800CDE9066700F066FF4FF4407201232846B4
:1015380004A9CDE90667CDE9042300F05BFF08B0F4
:10154800BDE8F08100100240001001400014014085
:10155800000C0140024B834200D0704700F0D4B821
:10156800940A002000230122D0B5012090B04FF446
:1015780080310224CDE90B33CDE90133CDE90333C2
:10158800089300930A9209934FF480324FF4E013C2
:10159800CDE9060106A8CDE90E230D9401F066F801
:1015A80008B172B6FEE703460F260227002204930D
:1015B8004FF4806321466846CDE90067CDE90223F0
:1015C80001F044FA08B172B6FEE710B0D0BD00BF12
:1015D8002DE9804887B000F073FEFFF7C3FFFFF7DF
:1015E8003FFF00F04DFB00F007FC00F03DFC00F071
:1015F800A3FC00F0D5FC00F06BFC00F0CFFDFFF77A
:10160800F5FE324801F088FB0021314801F030FC3A
:1016180004212F4801F02CFC08212D4801F028FC5A
:101628000C212B4801F024FC3C212A4801F01EFD26
:101638003C21294801F01AFD3C21284801F016FDFB
:101648003C21274801F012FDDFF898B0DFF898A098
:10165800DFF89890DFF898802AE00421484600F0E7
:10166800FBFFDBF81000FEF7F3FF224B0446186976
:101678000D46FEF7EDFF02460B461F490869CDE906
:101688000423FEF7E5FF02460B461C490869CDE92D
:101698000223FEF7DDFF06460F46194822462B4671
:1016A8004146CDE9006700F0CFFD0A20FFF7B8FEFC
:1016B8004FF48061504600F0C5FF0028CDD00022CD
:1016C8004846042100F0C4FFCBE700BF940A00207D
:1016D8004C0A0020DC0A0020240B00206C0B0020A0
:1016E800B40B002000000020000C01400014014051
:1016F800D099000838000020540000201C00002069
:10170800FC0B002072B6FEE72DE9F047DFF8D08128
:10171800744CD8F80030586A00B2FFF7ABF8724939
:10172800FEF77EFD4FF480610546704800F08AFFA1
:10173800002854D12946E068FEF7E6FF6C490646C2
:10174800FEF76EFDA169FEF7E1FF6A490746A0684A
:10175800FEF766FD294681462069FEF7D5FF01465A
:101768004846FEF75DFD3146FEF7D0FF6168064644
:101778003846FEF755FD01463046FEF7C7FF21689B
:10178800FEF74EFD4FF07E510646FFF71FF9002881
:1017980000F0DF8130465849FFF722F9002800F0B1
:1017A800D681002130466661A761FFF719F9024624
:1017B800002840F0F7811021504800F049FF01222D
:1017C80020214E4800F044FF30464D49FEF728FDE1
:1017D800FFF71AF94B4E80B23368986310E0002384
:1017E80000276361A361012210214448454E00F09F
:1017F8002FFF00222021414800F02AFF33689F6311
:101808000027D8F80020DFF800815762D8F80030A8
:101818002561586A3D4C00B2FFF72CF83249FEF7B3
:10182800FFFC4FF480610546304800F00BFF0028AC
:101838006ED12946E068FEF767FF2D490746FEF797
:10184800EFFCA169FEF762FF2A498146A068FEF70E
:10185800E7FC294682462069FEF756FF01465046B6
:10186800FEF7DEFC3946FEF751FF61680746484639
:10187800FEF7D6FC01463846FEF748FF2168FEF71A
:10188800CFFC4FF07E510746FFF7A0F8002800F084
:10189800778138461849FFF7A3F8002800F06E81D1
:1018A80038460021C4F818906761FFF799F8024696
:1018B800002840F07F814FF480710C4800F0C8FE8A
:1018C80001224FF40071094800F0C2FE0C49384665
:1018D800FEF7A6FCFFF798F8336880B2186428E092
:1018E800DC0A00200000002086F4CA3E000C0140FB
:1018F800CCCC4C3D0000A041000080BF001001404E
:1019080000C028C64C0A0020240B00201C00002020
:1019180000236361A36101224FF48071AD4800F098
:1019280097FE00224FF40071AA4800F091FE336838
:101938001F640027D8F80020DFF89C825762D8F887
:1019480000302561586AA54C00B2FEF793FFA44900
:10195800FEF766FC4FF4806105469E4800F072FE73
:10196800002854D12946E068FEF7CEFE9D49074677
:10197800FEF756FCA169FEF7C9FE9B498146A0689F
:10198800FEF74EFC294682462069FEF7BDFE014659
:101998005046FEF745FC3946FEF7B8FE6168074633
:1019A8004846FEF73DFC01463846FEF7AFFE216883
:1019B800FEF736FC4FF07E510746FFF707F8002880
:1019C80000F0BB8038468949FFF70AF8002800F084
:1019D800B28038460021C4F818906761FFF700F814
:1019E8000246002840F0EE800821814800F030FED1
:1019F800012204217E4800F02BFE7E493846FEF77E
:101A08000FFCFFF701F8336880B2D8630EE00023BB
:101A18006361A36101220821754800F019FE0022C4
:101A28000421734800F014FE3368DF630027D8F8F8
:101A38000020DFF8C4815762D8F800302561586A61
:101A48006E4C00B2FEF716FF6D49FEF7E9FB4FF446
:101A5800806105465F4800F0F5FD002853D129460E
:101A6800E068FEF751FE5F490746FEF7D9FBA1691A
:101A7800FEF74CFE294681462069FEF745FE5A4985
:101A88008246A068FEF7CCFB01465046FEF7C8FB2D
:101A98003946FEF73BFE616807464846FEF7C0FB3D
:101AA80001463846FEF732FE2168FEF7B9FB4FF0D3
:101AB8007E510746FEF78AFF002856D038464B4924
:101AC800FEF78EFF00284ED038460021C4F8189043
:101AD8006761FEF785FF024600285BD14FF400716D
:101AE800434800F0B5FD01224FF48071404800F0F2
:101AF800AFFD40493846FEF793FBFEF785FF366891
:101B080080B2706310E000236361A36101224FF487
:101B18000071374800F09CFD00224FF48071344872
:101B280000F096FD33685F630022D8F80030256125
:101B38005A62BDE8F0872D4F4BE74FF07E572B498F
:101B48003846FEF74DFF00287FF443AFF3E7274EF2
:101B580027E64FF07E5625493046FEF741FF00281C
:101B68007FF41FAEF3E7214FAEE74FF07E571F49D2
:101B78003846FEF735FF0028A6D1F4E71B4F8FE65D
:101B88004FF07E5719493846FEF72AFF00287FF4A0
:101B980087AEF3E738461B49FEF742FBFEF734FFF2
:101BA80087B2B3E717493046FEF73AFBFEF72CFF3A
:101BB80087B218E638461349FEF732FBFEF724FFD2
:101BC80087B2A8E638460F49FEF72AFBFEF71CFF46
:101BD80087B21FE7000C01406C0B00205400002066
:101BE8008E56CB3ECCCC4C3D0000A041000080BFBF
:101BF8000010014000C028C6B40B002038000020A7
:101C08007F25CB3E00C028460E4B82B09A690E490C
:101C180042F001029A619A6902F001020092009A68
:101C2800DA6942F08052DA61DB6903F0805301938C
:101C3800019B4B6823F0E06343F000734B6002B0F4
:101C4800704700BF0010024000000140FEE700BFDF
:101C5800FEE700BFFEE700BFFEE700BFFEE700BFEC
:101C6800704700BF704700BF704700BF00F03ABB25
:101C7800014801F019BC00BF940A0020704700BF5A
:101C8800F0B500249DB02022214614A8CDE90944CE
:101C9800CDE90D44CDE90F44CDE9114408940294EF
:101CA8000C940B94039401F051FE23234F4D6B6069
:101CB80042F62F23EB604E4B2846C5E90444AC603E
:101CC800AC612B6000F0B2FF002859D14FF480536B
:101CD800464808A9089301F039FB002868D1434811
:101CE80001F050F8002860D1002200233F4802A9E3
:101CF800CDE9022301F082FC002853D16026002799
:101D08000022CDE90C670026002738480CA9CDE948
:101D18000E67CDE91067129201F00AFA00283ED149
:101D2800042232480CA901F003FA002834D1082211
:101D38002E480CA901F0FCF958BB0C222B480CA921
:101D480001F0F6F910BB0022002300264FF40057DB
:101D58000024264814A9CDE91867CDE91423CDE954
:101D680016231B9401F084FC68B90023204A2968D3
:101D7800CDE904339142CDE906331CD01DB0F0BD46
:101D8800FFF7C0FCA2E7FFF7BDFCEEE7FFF7BAFCE0
:101D9800D9E7FFF7B7FCD0E7FFF7B4FCC7E7FFF7D1
:101DA800B1FCBDE7FFF7AEFCA8E7FFF7ABFC9BE78C
:101DB800FFF7A8FC93E74FF470640225022603F1AD
:101DC800804303F504339A690A4842F004029A6191
:101DD8009B6904A903F004030193CDE90445019B21
:101DE800079600F007FB1DB0F0BD00BF4C0A0020AD
:101DF800002C01400008014010B500234FF080443A
:101E080040F2CF2141F28732164886B0C0E901136B
:101E1800C0E90323CDE9033304600293009383618F
:101E28000593019300F002FF90B94FF480530D48D9
:101E380002A9029301F08AFA88B9002200236946B0
:101E48000848CDE9002301F0D9FB20B906B010BD40
:101E5800FFF758FCE9E7FFF755FC06B010BDFFF7A0
:101E680051FCEAE7940A002010B58CB0202200212A
:101E780004A801F06BFD0023032101224FF6FF7433
:101E880011480093C0E901330361836101930F4B4B
:101E9800039103A9C46003600592099201F052F806
:101EA80050B90022002369460748CDE9002301F014
:101EB800A5FB20B90CB010BDFFF724FCF1E7FFF734
:101EC80021FC0CB010BD00BFDC0A0020000400405B
:101ED80010B58CB02022002104A801F037FD0023A2
:101EE800032101224FF6FF7411480093C0E9013322
:101EF8000361836101930F4B039103A9C4600360DD
:101F08000592099201F01EF850B900220023694693
:101F18000748CDE9002301F071FB20B90CB010BDD2
:101F2800FFF7F0FBF1E7FFF7EDFB0CB010BD00BFCA
:101F3800240B00200008004010B58CB0202200219E
:101F480004A801F003FD0023032101224FF6FF74CA
:101F580011480093C0E901330361836101930F4B7A
:101F6800039103A9C46003600592099200F0EAFF97
:101F780050B90022002369460748CDE9002301F043
:101F88003DFB20B90CB010BDFFF7BCFBF1E7FFF734
:101F9800B9FB0CB010BD00BF6C0B0020000C00405A
:101FA80010B58CB02022002104A801F0CFFC00233A
:101FB800032101224FF6FF7411480093C0E9013351
:101FC800C0E90433836101930E4B039103A9C460F4
:101FD80003600592099200F0B5FF50B90022002372
:101FE80069460748CDE9002301F008FB20B90CB089
:101FF80010BDFFF787FBF1E7FFF784FB0CB010BDBE
:10200800B40B00200034014000B5174A036883B0C0
:10201800934205D0B3F1804F0FD003B05DF804FBB5
:10202800124B9A6942F400629A619B6903F4006357
:102038000093009B03B05DF804FB002203F5043312
:10204800D9691C2041F00101D961DB69114603F00F
:1020580001030193019B00F069F91C2003B05DF8AE
:1020680004EB00F0A1B900BF002C014000100240B1
:10207800002310B5424902688CB08A42CDE9083382
:10208800CDE90A3325D03F4B9A4240D03E4B9A4285
:1020980059D03E4B9A4201D00CB010BDC02403F574
:1020A8005C439A693A4842F400529A619A6908A9CD
:1020B80002F400520692069A9A6942F010029A6156
:1020C8009B69089403F010030793079B00F092F9AB
:1020D800E2E7C02403F1804303F50433DA692D48AD
:1020E80042F00202DA61DA6908A902F002020092FB
:1020F800009A9A6942F004029A619B69089403F075
:1021080004030193019B00F075F90CB010BDC024C5
:1021180003F50233DA69204842F00402DA61DA6929
:1021280008A902F004020292029A9A6942F008028F
:102138009A619B69089403F008030393039B00F0DA
:1021480059F90CB010BD032403F50133DA691148BD
:1021580042F00802DA61DA6908A902F0080204927A
:10216800049A9A6942F004029A619B69089403F000
:1021780004030593059B00F03DF90CB010BD00BFAA
:102188000004004000080040000C004000340140FA
:102198000010014000080140000C014000234FF4EA
:1021A80016510C2210B50948094CC0E90113C0E9C1
:1021B8000333C0E905230460C36101F087FA00B95D
:1021C80010BDBDE81040FFF79DBA00BFFC0B002012
:1021D80000440040D0B50024194B026886B09A42EA
:1021E800CDE90244CDE9044401D006B0D0BD03F5E1
:1021F800E633DA69042642F40032DA61DA69022742
:1022080002F400320092009A9A6902A942F004028C
:102218009A619B690B4803F0040301930323019A15
:102228000593CDE9026700F0E5F808220023054888
:1022380002A9CDE90223049400F0DCF806B0D0BD71
:1022480000440040000801400EB410B5A3B025AA10
:1022580052F8041B044602A8019201F0C9FB024689
:102268004FF0FF33204602A992B201F09DFA23B045
:10227800BDE8104003B0704738B54FF47A730D4A83
:10228800054611780C4AB3FBF1F31268B2FBF3F080
:1022980000F098F808B90F2D01D9012038BD04467F
:1022A800024629464FF0FF3000F040F8034B204625
:1022B8001D6038BD740000207000002078000020E8
:1022C800074A08B51368032043F01003136000F0B1
:1022D8001BF80F20FFF7D0FFFFF796FC002008BD82
:1022E80000200240034A044B11681B780B4413601A
:1022F800704700BF400C002074000020014B186894
:10230800704700BF400C00204FF6FF0C064903023F
:10231800CA6803F4E06302EA0C02134343F0BF63A4
:1023280043F40033CB60704700ED00E01C4B00B570
:10233800DB68C3F30223C3F1070EBEF1040F03F1F8
:10234800040C28BF4FF0040EBCF1060F1BD94FF048
:10235800FF3C033B0CFA03FC22EA0C024FF0FF3C63
:102368000CFA0EFC21EA0C019940002841EA02010E
:102378000CDB090100F16040C9B200F5614080F84A
:1023880000135DF804FB00221346E7E7054B00F055
:102398000F000901C9B2034419765DF804FB00BFB8
:1023A80000ED00E0FCEC00E0002807DB012300F072
:1023B8001F01034A40098B4042F82030704700BF94
:1023C80000E100E00138B0F1807F0FD24FF0E02348
:1023D8004FF0F00C0022072110B4054C586184F826
:1023E80023C010469A6110BC1961704701207047DC
:1023F80000ED00E02DE9F04F0E6883B0002E00F0EC
:10240800BE800022854F92461346854DDFF8148220
:1024180006E0013336FA03F402F1040200F0AF805B
:1024280001249C4034EA060E04EA060CF1D14E68F9
:10243800122E00F2A780122E1AD8DFE806F0B0C2DA
:10244800BED719191919191919191919191919BAF0
:10245800C500DFF8D4E1764500F0A1800EF5702EB6
:10246800764500F09C80AEF5801E764500F097809A
:10247800BCF1FF0F9CBF864693464FF00F0684BF02
:1024880000F1040EA2F1200BDEF800400AFA0BF965
:1024980006FA0BFB24EA0B0444EA0904CEF80040D0
:1024A8004C6814F0805F00F08280D7F818E003F0E1
:1024B80003094EF0010EC7F818E0D7F818E04FEA04
:1024C80089090EF0010ECDF804E0DDF804E023F0F0
:1024D800030E0EF1804E0EF5803EDEF808B006FAC7
:1024E80009F62BEA0606DFF844B158451BD00BF570
:1024F800806B584573D0DFF838B1584568D0DFF89D
:1025080034B158457CD0DFF830B158457FD0DFF87A
:102518002CB158450CBF4FF0050B4FF0060B0BFACA
:1025280009F946EA0906CEF808602E6814F4803FD7
:1025380014BF46EA0C0626EA0C062E606E6814F4F0
:10254800003F14BF46EA0C0626EA0C066E60AE6829
:1025580014F4801F14BF46EA0C0626EA0C06AE6087
:1025680014F4001FEC681FD044EA0C04EC600E68F9
:10257800013336FA03F402F104027FF451AF03B0D9
:10258800BDE8F08F46450AD07FF663AFDFF8B0E0CC
:10259800764504D00EF5803E76457FF469AF8E68A7
:1025A8003EBB4FF0040A63E724EA0C04EC600E68B3
:1025B8002FE7CC6804F1040A5AE7CC6804F1080A4A
:1025C80056E7D1F80CA053E7CC6804F10C0A4FE7A2
:1025D8004FF0020B0BFA09F946EA0906A3E74FF098
:1025E800010B0BFA09F946EA09069CE74FF0000AC5
:1025F8003EE7012E4FF0080A0CBF0461446137E73B
:102608004FF0030B0BFA09F946EA09068BE74FF07E
:10261800040B0BFA09F946EA090684E700100240A0
:1026280000040140000022100000121000080140C0
:10263800001001400014014000180140001C014036
:10264800000031108368194214BF01200020704730
:1026580002B9090401617047C36801EA030221EA6B
:10266800030141EA02410161704700BF002800F000
:10267800B6812DE9F04103680446DD0782B035D5FF
:102688009A494A6802F00C02042A00F0EF804A686E
:1026980002F00C02082A00F0E5806368B3F5803F79
:1026A80010D0002B00F00C81B3F5A02F00F0828130
:1026B8008E4B1A6822F480321A601A6822F480223B
:1026C8001A6004E0894A136843F480331360FFF703
:1026D80015FE864E054605E0FFF710FE401B6428F0
:1026E80000F2EA8033689A03F6D523689F0728D555
:1026F8007E4A516811F00C0F00F08D80516801F08E
:102708000C01082900F083802369002B00F0188150
:102718000122774B754E1A60FFF7F0FD054605E07C
:10272800FFF7ECFD401B022800F2C68033689807CB
:10273800F6D53368626923F0F80343EAC2033360CD
:1027480023681A071FD45D0742D5684BDA69D000A1
:102758007DD50025674E3368D90540F19D80E36833
:10276800012B00F0FE80002B00F0CA80052B5F4B88
:102778001A6A00F02C8122F001021A621A6A22F009
:1027880004021A62F2E0A369002B4FD00122584BD1
:10279800564EC3F88024FFF7B1FD054605E0FFF764
:1027A800ADFD401B022800F28780736A9B07F6D5AF
:1027B800514B524A1B68A2FB03235B0A019300BFDB
:1027C800019B5A1E0192002BF9D123685D07BCD4E6
:1027D800E069C0B1454D6B6803F00C03082B00F0AD
:1027E800D8800022424B02281A6600F0FA80FFF7D0
:1027F80085FD044604E0FFF781FD001B02285BD835
:102808002B689B01F7D4002002B0BDE8F081526824
:10281800D6033FF579AF354A1268950730D5226956
:10282800012A2DD0012002B0BDE8F081304A2F4E98
:10283800C2F88034FFF762FD054604E0FFF75EFD4D
:10284800401B022838D8736A9F07F7D4BDE7DA69B6
:10285800012542F08052DA61DB6903F0805300936E
:10286800009B77E74A68D0037FF517AF1F4A1268C5
:1028780091037FF53BAF6268002A7FF437AFD1E759
:102888001A4960690A6822F0F80242EAC0020A603E
:102898001A077FF558AF76E7336843F480733360DF
:1028A800FFF72CFD07463368DA053FF558AFFFF709
:1028B80025FDC01B6428F6D9032002B0BDE8F081CD
:1028C8000A4D2B6823F480332B602B6823F4802374
:1028D8002B60FFF713FD064604E0FFF70FFD801B92
:1028E8006428E9D82B689B03F7D4FEE60010024061
:1028F800000042420070004070000020D34D62107A
:10290800504E41F28838336A23F001033362336A48
:1029180023F004033362FFF7F1FC074604E0FFF7F6
:10292800EDFCC01B4045C7D8336A9807F7D4002D83
:102938003FF44EAF434AD36923F08053D36147E74E
:10294800414A404E1360FFF7D9FC054604E0FFF703
:10295800D5FC401B0228AFD833689907F7D4236801
:10296800EFE6384A136A43F001031362FFF7C6FC27
:1029780041F288380646334F04E0FFF7BFFC801B5E
:10298800404599D83B6A9B07F7D5002D3FF420AF07
:10299800D0E701283FF438AF6B68226A03F480312E
:1029A80091427FF43FAF606A03F47013181A18BF9E
:1029B800012029E703F18043A3F53C331A6842F468
:1029C80080221A601A6842F480321A607FE642F068
:1029D80004021A621A6A42F001021A62C6E701206A
:1029E8007047FFF78BFC064605E0FFF787FC801B66
:1029F80002283FF661AF2B689901F6D4236AB3F534
:102A0800803F05D16A68A16822F400320A436A60EF
:102A180001200C4D616A6A680B4322F474120A495A
:102A280013436B600866FFF769FC044605E0FFF78F
:102A380065FC001B02283FF63FAF2B689A01F6D5CC
:102A4800E1E600BF0010024000004242002800F00A
:102A5800B1805E4A2DE9F0411368044603F007038C
:102A68008B420D4686B00DD2136823F007030B4343
:102A78001360136803F007038B4203D0012006B0EC
:102A8800BDE8F08123689E0714D5580704D550493E
:102A98004A6842F4E0624A60190704D54C494A681A
:102AA80042F460524A604A49A0684A6822F0F0023B
:102AB80002434A60DA0720D56268454B012A1B6841
:102AC8007AD0022A73D09E07D8D5414E41F2883871
:102AD800736823F0030313437360FFF70FFC074683
:102AE80004E0FFF70BFCC01B404568D873686268B8
:102AF80003F00C03B3EB820FF3D1344A136803F0ED
:102B08000703AB4209D9136823F007032B4313606B
:102B1800136803F00703AB42B0D12368580706D502
:102B28002B49E0684A6822F4E06202434A601907C8
:102B380007D5274A2169536823F4605343EAC10340
:102B4800536040F20124234B06AD0FCB05E90F007B
:102B58001F49ADF804404A6802F00C03082B11D055
:102B68001D4B1B4A1D4852681D49C2F30312805C65
:102B78001C4AC34008681360FFF77EFB002006B0BC
:102B8800BDE8F081C2F3834318336B44D20313F8D2
:102B9800103C16D54A681049C2F3404201FB03F3C2
:102BA80018326A4412F8142CB3FBF2F3D9E79F01E8
:102BB8008BD463E7012070479B0386D45EE703202C
:102BC8005DE7094A02FB03F3CBE700BF00200240A0
:102BD80000100240F899000800127A00E0990008F5
:102BE800780000207000002000093D00044B054AD1
:102BF8005B680549C3F30223CB5C1068D840704773
:102C08000010024070000020F0990008044B054AAB
:102C18005B680549C3F3C223CB5C1068D840704792
:102C28000010024070000020F099000800286ED0C3
:102C380010B590F83D30044603F0FF02002B61D038
:102C480002232268334984F83D308A4213681CD035
:102C580001F500618A4218D0B2F1804F40D0A1F549
:102C680098318A423CD001F580618A4238D001F51A
:102C780080618A4234D0A06923F080030343E1686D
:102C880013606368D162936212E0A06823F0700356
:102C98002169034323F440730B43A16923F08003A4
:102CA8000B431360E368D3626368936263691363D9
:102CB8000123536184F8463084F83E3084F83F306D
:102CC80084F8403084F8413084F8423084F8433046
:102CD80084F8443084F8453084F83D30002010BD35
:102CE800A16823F0700320690B4323F44073A169A2
:102CF800034323F08003E0680B4361681360D062EC
:102D08009162D5E780F83C20FFF77EF998E701202B
:102D1800704700BF002C014090F83D30012B27D1AF
:102D28000222036880F83D20DA68134942F0010264
:102D38008B42DA6011D0114A93420ED0B3F1804F22
:102D48000BD0A2F59832934207D002F580629342E5
:102D580003D002F58062934204D19A6802F0070218
:102D6800062A07D01A68002042F001021A6070474C
:102D78000120704700207047002C014000340140BA
:102D8800704700BF00286ED010B590F83D3004465B
:102D980003F0FF02002B61D002232268334984F834
:102DA8003D308A4213681CD001F500618A4218D070
:102DB800B2F1804F40D0A1F598318A423CD001F55C
:102DC80080618A4238D001F580618A4234D0A06996
:102DD80023F080030343E16813606368D162936260
:102DE80012E0A06823F070032169034323F44073C1
:102DF8000B43A16923F080030B431360E368D3629C
:102E080063689362636913630123536184F84630EE
:102E180084F83E3084F83F3084F8403084F84130FC
:102E280084F8423084F8433084F8443084F84530DC
:102E380084F83D30002010BDA16823F0700320699C
:102E48000B4323F44073A169034323F08003E06834
:102E58000B4361681360D0629162D5E780F83C202B
:102E6800FFF78EFF98E70120704700BF002C014054
:102E7800002935D190F83E30012B45D1022380F846
:102E88003E300122036801F01F01186A02FA01F1BD
:102E980020EA010010B418621A6A284C1143A342B0
:102EA800196233D0264A934230D0B3F1804F0BD009
:102EB800A2F59832934207D002F58062934203D07C
:102EC80002F58062934204D19A6802F00702062A4A
:102ED80025D01A68002042F0010210BC1A60704721
:102EE80004291FD008290BD090F84130012B0BD1B1
:102EF80004291BD008291DD0022380F84130C0E7DF
:102F080090F84030012B15D0012070475A6C42F4DC
:102F180000425A649A6802F00702062AD9D10020B2
:102F280010BC704790F83F30012BEDD1022380F898
:102F38003F30A6E7022380F84030A2E7002C01408A
:102F480000340140002800F08D80F8B590F83D303D
:102F580004460D4603F0FF02002B7ED002222368B0
:102F680084F83D209A68404922F4804222F0070202
:102F78009A608B421A6824D001F500618B4220D0F8
:102F8800B3F1804F0BD0A1F598318B4207D001F5F2
:102F980080618B4203D001F580618B4207D1A16823
:102FA80022F070020A43216922F440720A43A1699F
:102FB80022F080020A43E1681A60D96262689A6264
:102FC80012E0A16822F070020A43216922F44072DB
:102FD8000A43A16922F080020A431A60E268DA62B1
:102FE80062689A6262691A630126AA68A969E8692F
:102FF80042EA01212A69120142EA0022E8685E6178
:10300800024398689F6927F4407C1F6A2CF0030CE0
:1030180041EA0C0127F0220C2F6A21F47C4121F0AF
:10302800FC0142EA07320A436F6969682D6841EA80
:103038000711284341EA0C0198609A61196284F8E3
:10304800466084F83E6084F83F6084F8426084F803
:10305800436084F83D600020F8BD80F83C20FFF70D
:1030680007F87BE701207047002C0140034600B5B4
:1030780090F83E0093F83F2093F842C0C0B293F80E
:1030880043E05FFA8CFCE1B9012802D001205DF829
:1030980004FBBCF1010FFAD102211A6883F83E1033
:1030A80083F84210136A23F001031362136A43F092
:1030B800010313621368002043F0010313605DF8F5
:1030C80004FB0429D2B25FFA8EFE1CD00128DDD1A0
:1030D800012ADCD1BCF1010FD9D1BEF1010FD6D143
:1030E80002211A6883F83E1083F83F1083F84210D3
:1030F80083F84310136A23F001031362136A43F041
:10310800010313620AE0012AC0D1BEF1010FBDD14B
:1031180002211A6883F83F1083F84310136A23F0DA
:1031280010031362136A43F010031362C2E700BF6F
:1031380090F83C30012B00F0CF80012330B5844655
:1031480080F83C300C2A32D8DFE802F00731313100
:103158006831313198313131360003680D681A6AA7
:1031680022F001021A621A6A5C68986922F0020267
:1031780020F0730028438D682A43734DAB4200F05A
:10318800AD8005F50065AB4200F0A8805C604C6836
:10319800986108695C631A62996941F0080199614C
:1031A800996921F0040199619A6902439A6100239F
:1031B8008CF83C30184630BD03680D681A6A22F452
:1031C80080521A621A6A5C68D86922F4005220F4A4
:1031D800E64040EA05208D6842EA05325A4DAB4286
:1031E80000F09B8005F50065AB4200F096805C60BE
:1031F8004C68D86108691C641A62D96941F4006195
:10320800D961D96921F48061D961DA6942EA002279
:10321800DA6100238CF83C30184630BD03680D682D
:103228001A6A22F010021A621A6A5C68986922F017
:10323800200220F4E64040EA05208D6842EA0512A3
:10324800414DAB4259D005F50065AB4255D05C60A5
:103258004C68986108699C631A62996941F4006135
:103268009961996921F4806199619A6942EA002219
:103278009A6100238CF83C30184630BD03680D680D
:103288001A6A22F480721A621A6A5C68D86922F48F
:10329800007220F0730028438D6842EA05222A4D07
:1032A800AB4240D005F50065AB423CD05C604C6851
:1032B800D8610869DC631A62D96941F00801D961EB
:1032C800D96921F00401D961DA690243DA6100237E
:1032D8008CF83C30184630BD02207047CD6822F08B
:1032E80008022A4324F44074D1E905E54EEA050EA4
:1032F80022F004024EEA040448E7CD6822F0800276
:1033080042EA051224F44064D1E905E54EEA050EC7
:1033180022F0400244EA8E0499E74D6924F480447F
:1033280044EA851463E7CD6822F4006242EA052284
:1033380024F44054D1E905E54EEA050E22F48062F2
:1033480044EA0E14B2E700BF002C014090F83C207C
:10335800012A75D030B4034601240222006883F89C
:103368003C4083F83D2084680A6824F47F4424F0B4
:103378007704602A846065D031D8402A48D021D9A2
:10338800502A16D14C68CD68016A21F00A01214300
:10339800046A24F001040462826922F0F00242EA1D
:1033A800051282610162826822F0700242F05702BF
:1033B80082600022012183F83C2083F83D101046EA
:1033C80030BC7047202A02D01ED9302AF1D181683A
:1033D80021F070010A4342F007028260E9E7702A8F
:1033E80049D0B2F5005FE4D1D1E9015284682A439B
:1033F800CD6824F47F4142EA05220A43826082684C
:1034080042F480428260D4E732F01001D1D1DEE785
:103418004C68CD68016A21F00A012143046A24F04E
:1034280001040462826922F0F00242EA0512826114
:103438000162826822F0700242F047028260B8E7B7
:1034480002207047046ACA6824F010044D680462B8
:10345800816921F4704141EA0231026A816122F0F6
:10346800A00242EA05120262826822F0700242F06B
:10347800670282609DE7D1E9015284682A43CD68DA
:1034880024F47F4142EA05220A438260826842F0BE
:10349800770282608DE700BF704700BF704700BFAA
:1034A800704700BF704700BF036810B51A6904462B
:1034B800910702D5DA6892075FD41A69500702D5D6
:1034C800DA68510746D41A69120702D5DA68100774
:1034D8002ED41A69D20602D5DA68D00618D41A6929
:1034E800D10702D5DA68D2075DD41A69100602D569
:1034F800DA6811065FD41A69520602D5DA685006EE
:1035080061D41A69910602D5DA68920643D410BDCF
:103518006FF01001082219612277DB69204613F445
:10352800407F64D0FFF7BAFF002223682277D6E7EE
:103538006FF00801042219612277DB692046990798
:1035480052D1FFF7A9FF2046FFF7AAFF0022236800
:103558002277BEE76FF004010222196122779B6986
:10356800204613F4407F3CD1FFF796FF2046FFF733
:1035780097FF002223682277A5E76FF00201012256
:10358800196102779B699B0725D0FFF787FF002207
:103598002368227791E76FF020022046BDE81040AB
:1035A8001A6100F08FB86FF0010220461A61FDF72A
:1035B800D1FF236899E76FF0800220461A6100F076
:1035C80083F8236897E76FF0400220461A61FFF7F7
:1035D80069FF236895E7FFF75FFF2046FFF760FF65
:1035E800D5E7FFF75BFFC4E7FFF758FFAEE7FFF744
:1035F80053FF2046FFF754FF96E700BF90F83C20A2
:10360800012A2FD0034602201A6830B483F83D00FF
:1036180050680C68144D20F070002043AA4294684A
:10362800506011D0114882420ED0B2F1804F0BD0B9
:10363800A0F59830824207D000F58060824203D01E
:1036480000F58060824204D1496824F080040C436C
:1036580094600022012183F83C2083F83D10104635
:1036680030BC704702207047002C014000340140F4
:1036780090F83C30012B23D00246D1E902034FF0E9
:10368800000C23F440730343486823F48063034326
:10369800086823F400630343086923F4805310B4D3
:1036A80003434C6923F40053C8692343116823F486
:1036B800804303434B6482F83CC0604610BC7047AB
:1036C80002207047704700BF704700BF002864D0D1
:1036D800F8B590F83D30044603F0FF02002B54D0B3
:1036E800D4E902272421206923680243606984F809
:1036F8003D100243D868A66920F40050D8601969C3
:10370800274D21F4405139431961D968AB4221F45E
:10371800B05121F00C0142EA0102DA605A6922F440
:10372800407242EA06025A6134D0FFF75FFA6268D3
:1037380000EB8003920003EB8303B3FBF2F36426F0
:1037480000254FF0200C17482168A0FB037252098E
:1037580006FB12331B013233A0FB0303120102EBF9
:1037680053138B600B69284623F490430B614B6914
:1037780023F02A034B61CB6843F40053CB602564E4
:1037880084F83DC084F83EC0F8BD80F83C20FEF7C0
:1037980021FDA5E7FFF73AFAC9E70120704700BF06
:1037A800003801401F85EB512DE9F8431D4690F87C
:1037B8003D30202B68D18846002940D01746002A82
:1037C8003DD090F83C300446012B5DD021230122E6
:1037D8004FF0000980F83C20C0F8409080F83D3058
:1037E800FEF78CFDA3680646B3F5805FA784E784DF
:1037F8004DD0002384F83C30E38C9BB2002B58D08A
:103808002368691C1ED11A681206FCD5B8F1000F8E
:1038180035D018F8012B5A60E28C013A92B2E28452
:10382800E28C92B2002AECD1681C36D11A68510693
:10383800FCD5202384F83D300020BDE8F883012022
:10384800BDE8F8831A681706E0D42DB1FEF756FDD7
:10385800801B85422368D4D220210025DA68032002
:1038680022F4D072DA605A6922F001025A6184F8AF
:103878003D1084F83C5084F83E10BDE8F88339F8D0
:10388800022BC2F30802C6E70220BDE8F8832369C9
:10389800002BAED1C1469846ABE71A685206C8D489
:1038A800002DD9D0FEF72AFD831B9D422368BBD289
:1038B800D2E72368B8E700BF0C480D490D4A00233A
:1038C80002E0D458C4500433C4188C42F9D30A4ACD
:1038D8000A4C002301E013600432A242FBD3FEF736
:1038E800CDF900F00FF8FDF773FE704700000020D7
:1038F800280A00201C9E0008280A0020900C00209E
:10390800FEE7000070B50D4E0D4D761BB61006D0C3
:10391800002455F8043B01349847A642F9D1094ED2
:10392800094D06F043F8761BB61006D0002455F86A
:10393800043B01349847A642F9D170BD109E000897
:10394800109E0008189E0008109E0008830730B5D6
:1039580048D0541E002A3FD00346CAB201E0013CB9
:103968003AD303F8012B9D07F9D1032C2DD9CDB2F9
:1039780045EA05250F2C45EA054536D9A4F110027C
:1039880022F00F0C03F1200EE6444FEA121C03F15B
:10399800100242E9045542E9025510327245F8D145
:1039A8000CF1010214F00C0F03EB021204F00F0CDF
:1039B80013D0ACF1040323F003030433134442F897
:1039C800045B9342FBD10CF003042CB1CAB21C4433
:1039D80003F8012B9C42FBD130BD64461346002CF2
:1039E800F4D1F9E703461446BFE71A46A446E0E7D0
:1039F8008C4630B504466FF000451346084A9BB024
:103A08001068084A69460392624605950295009433
:103A1800049400F037F80022009B1A701BB030BDE8
:103A28007C0000200802FFFF024B13B1024800F09F
:103A380005B8704700000000513A0008002301460D
:103A48001A46184601F070BD38B5084B084D5B1B87
:103A58009C1007D0043B1D44013C55F80439984795
:103A6800002CF9D1BDE8384005F0A6BF1C9E00081F
:103A7800189E0008704700BF704700BF704700BF1E
:103A8800704700BF2DE9F04FD5B00C460C91914618
:103A98000E930A9002F0DAFE03681846179303F0B3
:103AA800C7FDA3891690190603D52369002B00F0DA
:103AB8008F8700242BAB224698464D46CDE92944F2
:103AC8002893129400230024CDE914342B78CDE9EF
:103AD8001922CDE91B2218920892002B00F0CE8102
:103AE800AA4604E01AF8013F002B00F00981252BB3
:103AF800F8D1BAEB050640F007819AF80030002BA0
:103B080000F0BC8100234FF0FF324FF02B09202436
:103B18001F469AF8016007920AF1010A8DF883306E
:103B280009930AF1010AA6F120035A2B00F2208119
:103B3800DFE813F0CA021E011E01C5021E011E01A4
:103B48001E01A3021E011E016A00F3021E014702A4
:103B5800D9021E01D4025B005B005B005B005B00C6
:103B68005B005B005B005B001E011E011E011E0165
:103B78001E011E011E01B0011E010B027A00B001D8
:103B8800B001B0011E011E011E011E019E021E0190
:103B98001E01B6001E011E011E0119021E014C0263
:103BA8001E011E013F071E011E011E011E011E01EE
:103BB8001E011E011E01B0011E010B027C00B00196
:103BC800B001B00191027C0075001E0184021E0143
:103BD8007002B8005E0275001E01190272001C070F
:103BE8001E011E011F071E0172000022A6F13003EC
:103BF8001AF8016B02EB820203EB4202A6F13003D2
:103C0800092BF5D909928EE70E9B53F8042B002A4D
:103C180009920E93C0F2D2819AF8006081E79AF86F
:103C2800006047F020077CE747F01007BA060E9BB4
:103C380040F17D81073323F007031A465B6852F889
:103C4800084B99460E92002BC0F27F85079B0133E3
:103C580001F0398054EA090327F0800B00F005854C
:103C68000A2C79F1000380F0938701235F463034F2
:103C78008DF84F410B930DF24F15079A0B990023BE
:103C88008A42B8BF0A4606929DF883200D930F9387
:103C980013931093002A7CD0069B0133069378E097
:103CA80047F0100717F0200900F032810E9B073308
:103CB80023F00703D3F8049053F8084B0E9300231E
:103CC80027F4806B00228DF88320079A511C00F09E
:103CD8002A8254EA09012BF0800740F02382002A47
:103CE80041F02B80002B40F0C5841BF001030B939F
:103CF80000F0548530230DF24F158DF84F31BCE795
:103D0800BAEB050600F0BA802A9BC8E9005633448E
:103D18002A93299B0133072B299305DC08F108080E
:103D2800089B33440893E8E60C990A9828AA03F0FC
:103D3800E1FC80B90DF1AC08F2E70C990A9828AAC1
:103D480003F0D8FC002800F08A800D9B1BB10D9968
:103D58000A9802F07BFC0C9B9B8913F0400F089B90
:103D680018BF4FF0FF330893089855B0BDE8F08F9F
:103D7800002E00F08380012300228DF8EC6006936A
:103D88003BAD8DF883200B930D9207920F921392FF
:103D9800109217F0020302D006990231069117F02B
:103DA800840B07D109990698A1EB0009B9F1000F16
:103DB80000F336832A9C82B10122C8F80420299A8C
:103DC800013401320DF18301072A2A942992C8F897
:103DD800001000F3698308F108087BB10223C8F8D2
:103DE8000430299B0234013321AA072B2A942993F2
:103DF800C8F8002000F36C8308F10808BBF1800FB5
:103E080000F02E82079B0B9AA3EB020BBBF1000F6D
:103E180000F37182FB0500F1C5810B9BC8F80050C7
:103E28001C44C8F80430299B2A940133072B299392
:103E380000F3EA8208F108087B0705D5099B069A72
:103E48009D1A002D00F35083DDE9083206998A4255
:103E5800ACBF9B185B180893002C7FF46EAF00234F
:103E680029930D9B1BB10D990A9802F0EFFB55465B
:103E78000DF1AC082B78002B7FF432AE2A9B002B77
:103E88003FF469AF0C9C0A98214628AA03F032FC3B
:103E9800A38962E70E9B073323F00702F2E8023496
:103EA800CDE91434DDE9143424F000449946184669
:103EB8000E9221464FF0FF32B64BFDF7D5F8002899
:103EC80040F09684484621464FF0FF32B14BFDF74B
:103ED800ADF8002840F08C84DDE9140100220023AD
:103EE800FDF79AF8002840F0A6879DF88320002166
:103EF8000320A94DA94B27F080070D910690472E66
:103F0800C8BF1D4607910B900F9113911091C1E600
:103F180017F0100340F0628417F0400200F07B872E
:103F28000E9A994652F8044B0E92A4B2C7E653F87B
:103F3800044B0E93FB0600F141847D0640F13B845F
:103F480044F3C0394B4624B27DE6012000220E9B83
:103F5800069053F8041B3BAD8DF883208DF8EC10C8
:103F68000E930B9010E74FF000090E9C079B54F836
:103F7800045B8DF88390002D00F0EE865A1C00F04B
:103F880060851A464946284602F010FF0D90002821
:103F980001F09E800D9B9DF883205B1B0B9323EA09
:103FA800E373CDF81C900E940693CDF83490CDF8B9
:103FB8003C90CDF84C90CDF840906BE6099B5B4265
:103FC80009939AF8006047F00407AAE547F0100B38
:103FD8001BF0200900F0AA830E9B073323F0070388
:103FE8001A4652F8084BD3F804900E92012369E65A
:103FF800302278260E9B8DF8842053F8044B684AAB
:104008000E934FF00009022347F0020B8DF88560EC
:10401800189257E6BD0600F1D683FC0600F1938698
:10402800780600F15D87B90540F18D860E9B0899E9
:1040380053F8042B554611700E931BE79AF800604D
:104048006C2E03BF9AF8016047F020070AF1010AB5
:1040580047F0100765E59AF80060682E03BF9AF8E4
:10406800016047F400770AF1010A47F0400758E574
:104078009AF8006047F0080753E50A9E304602F0B8
:10408800E5FB436818461B9303F0D2FA0346304613
:104098001C931E4602F0DAFB83681993002E3FF446
:1040A800BBAD199B002B3FF4B7AD199B1B78002BB8
:1040B8003FF4B2AD9AF8006047F4806731E59AF8AA
:1040C800006047F001072CE59DF88330002B7FF452
:1040D800A3AD9AF800608DF8834022E59AF8006055
:1040E80047F080071DE5524612F8016B2A2E01F0B1
:1040F800EB81A6F13003092B924698BF002201F20A
:1041080003801AF8016B02EB820203EB4202A6F16C
:104118003003092BF5D9079205E59AF800608DF868
:104128008390FEE4BB46012B3FF49AAD022B54ADBD
:1041380012D1189A04F00F03D35C240944EA0974D5
:104148004FEA191905F8013D54EA0903F2D154ABB5
:104158005B1B5F460B9390E504F00703E40844EA11
:1041680049744FEAD909303354EA09012A4605F857
:10417800013DF1D11BF0010FE9D0302BE7D03023FE
:10418800023A05F8013C54AB9B1A5F4615460B935F
:1041980073E500BFFFFFEF7F109A0008149A00082C
:1041A800209A0008652E40F3E980DDE91401002219
:1041B8000023FCF727FF002800F0D2810123C8F86C
:1041C8000430299BBF4A01330134072B2A942993D1
:1041D800C8F8002000F37A8508F10808229B129A93
:1041E800934280F2D782169B179A1C44C8E9002391
:1041F800299B2A940133072B299300F3DD8308F1C7
:104208000808129B5D1E002D7FF716AE102D41F396
:104218004181DFF8B492224649461026B946299BC7
:104228000F46DDF828B00C9C05E008F10808103DA1
:10423800102D40F3588501331032072BC8E900765A
:10424800CDE92932F1DD2146584628AA03F052FA71
:1042580000287FF47AADDDE929320DF1AC08E6E7F4
:10426800099B069AA3EB020BBBF1000F7FF7CAADBF
:10427800BBF1100F41F30580DFF84C924146204610
:10428800A8464C461023299A0C9DDDF8289006E094
:10429800ABF1100BBBF1100F01F1080119DD013270
:1042A8001030072AC1E90043CDE92920F0DD29466D
:1042B800484628AA03F01EFA00287FF446ADDDE937
:1042C8002920ABF1100BBBF1100F4FF010032BA9F5
:1042D800E5DC4546A1468846044601325C44072A87
:1042E800CDE92924C8F80090C8F804B000F318856F
:1042F80008F1080886E5BBF1100F40F39785DFF851
:10430800C89141462046A8464C461023299A0C9D40
:10431800DDF8289006E0ABF1100BBBF1100F01F1AE
:10432800080119DD01321030072AC1E90043CDE93F
:104338002920F0DD2946484628AA03F0DBF90028A1
:104348007FF403ADDDE92920ABF1100BBBF1100FB1
:104358004FF010032BA9E5DC4546A14688460446E4
:1043680001325C44072ACDE92924C8F80090C8F82E
:1043780004B000F3CE8108F108084BE5129B012B2D
:1043880040F37E810123299E01341E44072EC8F87C
:1043980000502A94C8F80430299600F3E18108F106
:1043A8000808169B0136179A1C44072EC8E90023F3
:1043B800CDE9296400F3E18108F108080022DDE96C
:1043C80014010023FCF71EFE002840F07681129BA2
:1043D8000136013B01351C44072EC8F800502996C8
:1043E800C8F804302A9400F35B8108F108081A9B86
:1043F80001361C44C8F80430072E24ABCDE92964E3
:10440800C8F800307FF716AD0C990A9828AA03F06F
:1044180071F900287FF499AC2A9C0DF1AC080BE5E2
:10442800B9F1100F40F35086DDE929214046CDE966
:104438001D36B84610244F460C9EA9460A9D04E036
:10444800103F102F00F1080016DD01321F4B10310C
:10445800072AC0E90034CDE92921F1DD3146284693
:1044680028AA03F047F900287FF46FACDDE9292179
:10447800103F102F2BA8E8DC4D46DDE91D36B94664
:104488004746804609EB010401321049072ACDE965
:104498002924C8F80490C8F8001000F3C3839DF8D5
:1044A800832008F1080886E40C990A9828AA1D9325
:1044B80003F020F900287FF448AC2A9C1D9B0DF1DD
:1044C800AC088AE4509A0008649A0008549A0008D4
:1044D8000C990A9828AA03F00DF900287FF435AC46
:1044E8002A9C0DF1AC0889E4102D40F3C4861026EF
:1044F800299B0A9FDDF8309004E0103D102D08F14B
:10450800080817DD0133B84A1034072BC8E900261C
:10451800CDE92934F1DD4946384628AA03F0EAF8FE
:1045280000287FF412ACDDE92934103D102D0DF17F
:10453800AC08E7DC0133AC4A2C44072BCDE929341D
:10454800C8F80450C8F800207FF77EAC0C990A9888
:1045580028AA03F0CFF800287FF4F7AB2A9C73E46D
:104568002299002940F36F83DDF84090129B99450A
:10457800A8BF9946B9F1000F0BDD299B4C440133C4
:10458800072BC8E900592A94299300F31D8508F1DF
:104598000808109EB9F1000FA8BFA6EB0906002E67
:1045A80000F32582DDF840B07805AB4400F15F8266
:1045B800229B129A934202DBF90740F17684169AFD
:1045C80017991444C8E90012299A2A940132072A33
:1045D800299200F3138508F10808129AAE18A6EB81
:1045E8000B06D51AAE42A8BF2E46002E0DDD299B1C
:1045F80034440133072BC8F800B0C8F804602A9483
:10460800299300F3718508F10808002EA8BFAD1B97
:10461800002D7FF711AC102D40F33C87DFF8CC91CB
:10462800224649461026B946299B0F46DDF828B090
:104638000C9C05E008F10808103D102D40F3538349
:1046480001331032072BC8E90076CDE92932F1DDB4
:104658002146584628AA03F04DF800287FF475AB88
:10466800DDE929320DF1AC08E6E7079B002B7FF462
:10467800FCAA5F46002354AD07930B93FFF7FDBADE
:10468800FA073FF57FAE0123299E01341E44072E09
:10469800C8F800502A94C8F8043029967FF7A5AEC8
:1046A8000C990A9828AA03F025F800287FF44DAB46
:1046B800DDE929640DF1AC0899E6129B5D1E002D19
:1046C8007FF795AE102D40F3DF86224607974FF00F
:1046D800100BDFF818910A9C0C9F05E008F10808F8
:1046E800103D102D40F37F8301361032072EC8E9A4
:1046F800009BCDE92962F1DD3946204628AA02F05F
:10470800F9FF00287FF421ABDDE929620DF1AC083F
:10471800E6E70C990A9828AA02F0ECFF00287FF433
:1047280014AB2A9C0DF1AC08FFF774BB1BF0100307
:104738000E9A3AD11BF0400133D052F8044B9946F7
:104748000E920123A4B2FFF7BDBA2D2364428DF85F
:104758008330BB464FF0010369EB4909FFF7B5BA4F
:104768000C990A9828AA02F0C5FF00287FF4EDAA40
:10477800DDE929640DF1AC0813E60C990A9828AA1A
:1047880002F0B8FF00287FF4E0AADDE929640DF102
:10479800AC0813E6FD077FF54FAB24E554ADFFF7F2
:1047A8006CBA1BF4007940F08A8352F8044B012359
:1047B8000E92FFF787BAB80500F19B834FEAE479B8
:1047C8004B46FFF740BA0E9B089853F8041BC217D4
:1047D8005546C1E900020E93FFF74CBB0E9B53F8F8
:1047E800044B0E93FFF76BBA549A0008649A0008BA
:1047F800DDE9140102460B46FCF736FC002840F0C0
:10480800E985612E00F07D85412E00F08B84079BA1
:10481800013300F08F8326F02003472B069300F026
:104828008F85DDE9141247F480730F931346002B2C
:10483800C0F2B0850B9300238B461D930D93069B06
:10484800462B00F0E983452B00F0468507990B9B22
:1048580001910221009126A9049123A9039122A97B
:104868005A460A98029100F03BFF069B0546472BE3
:1048780040F03A8617F0010FB9460F9F40F0FE84CA
:10488800269B5B1B1293069B472B00F06E83069BAF
:10489800462B00F0F083229B1093109B069A013B55
:1048A800412A229300F0BB850021F2B2002B8DF83B
:1048B8009020B6BF2D222B22109B8DF89120B8BFD7
:1048C800C3F10103092B40F39B850DF19F0C624650
:1048D800B64F1C46104687FB0312D917C1EBA2013D
:1048E80001EB8102A3EB42023032632C00F8012C69
:1048F8000B4600F1FF32ECDC3033811EDBB28C4515
:1049080002F8013C40F2F9850DF1920101E012F83C
:10491800013B944501F8013BF9D10DF1A1030DF1DB
:1049280092021B1A134424AA9B1A1A93129B1A9ACE
:10493800012B1A440B9240F381850B9B169A134462
:104948000B9300230B9A29F4806722EAE27247F45A
:1049580080770F930692139310931D9B002B40F0C2
:104968002C839DF883200793FFF794B9BB46FFF784
:104978002FBB8F4B189317F0200900F0F5800E9B82
:10498800073323F00703D3F8049053F8084B0E932A
:10499800F80709D554EA090306D030238DF8856055
:1049A80047F002078DF88430022327F4806BFFF765
:1049B80089B9804B1893DEE70C990A9828AA02F067
:1049C80099FE00287FF4C1A92A9C0DF1AC0818E4CF
:1049D80040210A9801F03EFF0C9B186018610028DE
:1049E80000F0978540230C9A5361FFF762B8102EA8
:1049F80040F37685DFF8C091424648462146A846EE
:104A0800B9464FF0100B0746299B0A9C0C9D04E001
:104A18000832103E102E40F3138201331031072B59
:104A2800C2E9007BCDE92931F2DD2946204628AAD2
:104A380002F060FE00287FF488A9DDE929312BAA5D
:104A4800E7E72846CDF81C900E9402F0F1FD20EA25
:104A5800E0739DF883200B90CDF83490CDF83C900E
:104A6800CDF84C90CDF840900693FFF713B9129B00
:104A78004246DDF84C80EB185E460793CDF82CA033
:104A880010972146199FDDF87090DDF828A0DDF811
:104A980030B00F9B1395B8F1000F2ED083BB013FA8
:104AA80008F1FF381B9B4944C2E90039299B2A9128
:104AB8000133072B299360DC0832079B38789B1B4E
:104AC8008342A8BF0346002B1C460BDD29981944D6
:104AD80001300728C2E900632A91299000F3148164
:104AE80038780832002CB4BF0546051B002D0BDCB6
:104AF80006440F9BB8F1000FD0D1002B00F026829E
:104B08000F9B013B0F93CDE7102D40F39D8410249C
:104B1800299804E0103D102D02F1080216DD01303D
:104B2800254B10310728C2E90034CDE92901F1DD10
:104B38005946504628AA02F0DDFD00287FF405A951
:104B4800DDE92901103D102D2BAAE8DC01301A4BB4
:104B580029440728CDE929015560136000F34182F3
:104B6800387808320644C4E717F0100300F0A08034
:104B78000E9B53F8044B0E930AE75946504628AA51
:104B880002F0B8FD00287FF4E0A82A992BAA94E740
:104B980000230BF480620696CDF82CA0CDF8348063
:104BA80092461E46DDF8648054AF14E06766666678
:104BB800209A0008349A0008649A000800232046C6
:104BC80049460A22FCF78EFA0A2C79F100031BD316
:104BD800044689462F4620460A2200234946FCF708
:104BE80081FA30327D1E013607F8012CBAF1000F28
:104BF800E4D098F800309E42E0D1FF2EDED00A2C97
:104C080079F1000380F0308154AB5B1BDDF82CA0F8
:104C1800CDF8648012965F46069EDDF834800B93CB
:104C2800FFF72BB80C990A9828AA1D9302F062FD89
:104C380000287FF48AA89DF883202A9C1D9B0DF1EB
:104C4800AC08FFF7B8B80123C8F80430299BBC4A60
:104C580001330134072B2A942993C8F8002000F364
:104C6800178108F10808002940F08680129A07F099
:104C7800010313433FF4E0A8169B17991A19C8E9D2
:104C88000013299B2A920133072B299300F33781BC
:104C980008F10808129901338C18072BCDE929343B
:104CA800C8F80050C8F804107FF7C4A8FFF7ACBBD9
:104CB80017F0400200F0A5800E9A994652F8044B6E
:104CC8000E92A4B264E6BB46FEF7CABF0C990A98D6
:104CD80028AA02F00FFD00287FF437A82A9C0DF1BE
:104CE800AC08FFF77BBA14463A464F469146013363
:104CF8002C44072BC8F80090C8F80450CDE9293493
:104D08007FF798A8FFF780BB5946504628AA02F0BB
:104D1800F1FC00287FF419A838782A992BAAE1E633
:104D28000C990A9828AA02F0E5FC00287FF40DA83F
:104D38002A9C0DF1AC08FFF765B8012BBB467FF440
:104D4800F5A9FEF792BF0E9B089953F8042B554618
:104D580011600E93FFF78EB8062B294628BF06234D
:104D68002A4607950D950693764D0E940B930F9151
:104D780013911091FEF78EBF169B17981A19C8E960
:104D88000003299B2A920133072B299300F3B7804C
:104D980008F108080029BFF67DAF4E42103180F2B5
:104DA800A98341461024A846DFF89C91DDF828B075
:104DB8000C9D04E00831103E102E40F3A782013309
:104DC8001032072BC1E90094CDE92932F2DD2946DA
:104DD800584628AA02F08EFC00287EF4B6AFDDE91A
:104DE80029322BA9E7E71446079F01362C44072EE2
:104DF800CDE92964C8F80090C8F804507FF7F5AAEF
:104E08004EE417F400790E9B66D053F8044B914694
:104E18000E93E4B2BCE517F400790E9B57D053F813
:104E2800044B91460E93E4B2FEF749BF299ADFF886
:104E38001891FFF795BA2D228DF88320FFF757B800
:104E4800454690463A460C464F469146013334440F
:104E5800072BCDE92934C8F80090C8F804605CDC59
:104E680008F10808FFF79EBB1C9B1B99ED1A1A4610
:104E7800284602F00BFC98F801300BB108F1010844
:104E8800204649460A2200230026FCF72BF99FE614
:104E98000C990A9828AA02F02DFC00287EF455AF38
:104EA80022992A9C0DF1AC08DDE6129AAE18A6EB01
:104EB8000B06D51AAE42A8BF2E46FFF7A6BB52F87E
:104EC800044B894601230E92E4B2FEF7FBBE53F869
:104ED800044B0E93FEF7F3BE53F8044B0E9357E5BD
:104EE8000E9B089953F8042B554611800E93FEF734
:104EF800C1BF44F3C0194B4664B2FEF7A4BE0C9977
:104F08000A9828AA02F0F6FB00287EF41EAFDDE915
:104F1800293222990DF1AC083CE70C990A9828AA85
:104F280002F0E8FB00287EF410AF2A9C0DF1AC08D3
:104F3800FFF738BB0623079326F02003069370E497
:104F4800509A0008489A0008649A0008DDE912356A
:104F5800EB189E42B346199790460C4628BF9B46CD
:104F6800DDF82CA0109FFFF723BB229BDA1C1093BF
:104F780002DB079A934204DD023E26F020030693E3
:104F88008BE4109B129A9342C0F2C28019F0010F71
:104F980000F01D82169A13440B9319F4806F00F0E9
:104FA8001482109B6726002B76DC0B9B23EAE373A5
:104FB800069300230F931393CFE42D2200238DF83B
:104FC80083200793FEF768BE0C990A9828AA02F076
:104FD80091FB00287EF4B9AE2A9C0DF1AC08FFF7CE
:104FE800D8BA5946504628AA02F084FB00287EF415
:104FF800ACAE38782A992BAA06447AE50C990A9817
:1050080028AA02F077FB00287EF49FAE229B2A9CF8
:105018000DF1AC08FFF7E1BA07990B9B0191032149
:10502800009126A9049123A9039122A95A460A9816
:10503800029100F055FB03780546302B00F01682EC
:10504800229B079AB94613440F9FEC185846002232
:1050580000230B99FBF7D6FF08B1234611E4269BE2
:10506800A342BFF40EAC30215A1C26921970269B1D
:105078009C42F9D805E4229A002A109240F30E8245
:10508800079909F001030B4340F07E816626109BC7
:105098000B9319F4806F88D019990B78FF2B00F0C7
:1050A80025820024109A204604E001300131FF2BAC
:1050B80000F05981934280F25681D21A4B78002B26
:1050C800F3D10B780134F2E7DDE92921FFF7DAB9EA
:1050D800079B9DF883200E9406930B9307900F90DF
:1050E80013901090FEF7D6BD0C990A9828AA02F0E2
:1050F80001FB00287EF429AE229D129B2A9C0DF10B
:10510800AC085D1BFFF781BA00230793FEF70BBDC0
:10511800129B169A9A18109B0B92002B40F38581CC
:105128006726B6E730238DF8843058238DF885300C
:10513800079B47F00204632B00F3C48000233BADB8
:105148000D9347F481730F93DDE914121346002B76
:105158002746C0F284800B9300238B461D9326F0CC
:1051680020030693612E00F01881412E7FF467AB6F
:1051780022AA58460B9902F011FA00224FF07F53E9
:10518800FBF7D8FC02460B46CDE91023002200238A
:10519800FBF738FF08B101232293AD4B0B93079B14
:1051A800CDE912A6CDE91E78DDE91067AB46DDF83A
:1051B8002CA003F1FF39109506E00022002309F125
:1051C800FF39FBF71FFFE8B90022A24B30463946EA
:1051D800FBF7B0FC0F460646FBF75CFF0446FBF7FF
:1051E80025FA0B46024639463046FBF7D1F81AF83D
:1051F8000430B9F1FF3FD8464D4606460F460BF836
:10520800013BDAD1304639460022934BA946DDF8F6
:1052180048A0109DCDF84880CDE91001DDF87C80CC
:10522800139E1E9FFBF716FF80BBDDE910010022CD
:10523800894BFBF7E7FE08B1E10727D44B46002B63
:1052480006DB302201335B440BF8012B5B45FBD1B5
:10525800ABEB0503B94612930F9FFFF714BB26F07B
:10526800200306932D22DDE914349B4604F1004304
:105278001D920B9376E7299BFFF75CB9079BEC1807
:10528800E4E6299ADFF8D491FFF727B8129B269312
:105298000B9B1BF8012CD97B5B468A4209D1302035
:1052A80003F8010C269B5A1E269213F8012C9142F2
:1052B800F6D0392A0BBF0B9A0132927AD2B203F890
:1052C800012CC5E70A98591C01F0C4FA05460028C4
:1052D80000F017810D9034E70221009107995A4692
:1052E8004C1C26A9049123A9039122A90B9B0A9877
:1052F8000194029100F0F4F90546B9462C440F9F39
:10530800A4E630238DF8843078230FE74546884695
:1053180001333244072BCDE92932C8F80090C8F888
:1053280004607FF7B5AC0C990A9828AA02F0E2F954
:1053380000287EF40AADDDE929320DF1AC08A9E4B4
:10534800079B002B08BF0123079347F480730F9333
:10535800159B002BC0F2B680DDF850B00D900B9372
:105368001D90FFF773BA1991109213900F940F9A2A
:10537800139B1C9913440B9A01FB03230B9323EAF9
:10538800E3730693FFF7E9BA169B6626D318194408
:105398000B917EE600230D9364E722AA58460B99E9
:1053A80002F0FCF800224FF07F53FBF7C3FB0246E4
:1053B8000B46CDE9102300220023FBF723FE08B19A
:1053C80001232293264B0B93E9E66726EDE5109B14
:1053D8000B93E2E5159B0320002BB8BF2D224FF05D
:1053E8000003A8BF9DF8832019460D931D4D1E4B41
:1053F800B8BF8DF8832027F080070690FEF77FBDA1
:10540800002944D130228DF892200DF193023033D7
:1054180002F8013B24ABD31A1A93FFF787BA06F1B7
:105428000F020121D2B2FFF741BAC3F101031A44B6
:1054380022EAE27367260B920693BAE519F0010F88
:105448003FF47FAAFFF779BA2998FFF77FBB00BF1F
:10545800349A0008000030400000E03F649A0008D9
:10546800209A0008189A00081C9A0008584600223A
:1054780000230B99FBF7C6FD00287FF4E1AD079BDD
:10548800C3F101032293DCE5DFF89890ADE40DF158
:105498009202BCE7299BDFF88C9028E4079A09F070
:1054A800010959EA020304D10123662606930B93E6
:1054B8007FE5169B662601331A4422EAE2730B92B3
:1054C800069376E50D90CDE60E9B9AF8016092461C
:1054D80053F8042B0E9342EAE2730793FEF721BBBD
:1054E800299BDFF84090B1E4079C06E700230F935F
:1054F80013933CE7DFF82C900AE702231A93FFF78F
:1055080015BA0C998B8943F0400213468A81FEF73D
:1055180024BC4FF0FF320C2308920A9A1360FEF75E
:1055280023BC00BF649A00082DE9F047DFF87CA08F
:105538000646DAF8000098460F469146FEF79EFAAE
:105548001B4B1B68D3F8484124B365681F2D26DC24
:105558005EB96B1C0235DAF80000636044F8257008
:10556800FEF78EFA0020BDE8F087012304EB8501E1
:10557800C1F88890D4F88821AB401A43022EC4F8A9
:105588008821C1F80881E4D1D4F88C211343C4F8E8
:105598008C31DEE703F5A674C3F84841D5E7DAF89D
:1055A8000000FEF76DFA4FF0FF30DCE7A80400209A
:1055B8000C9A00082DE9F04F03690C6985B0A342E5
:1055C800C0F28980013C01F11405A30000F1140820
:1055D800019355F8243058F8242001338A469A421A
:1055E80008EB84018146B2FBF3F605EB84070291D0
:1055F8003AD30021AE4640460A46A34603955EF8D4
:10560800045B0468ABB206FB03132D0C190C06FBF4
:1056180005119BB2D21A1FFA84FC94448AB2C2EBD9
:10562800144202EB2C421FFA8CFC4CEA02437745E9
:1056380040F8043B4FEA11414FEA2242DFD2019B76
:105648005C4658F80330039D73B9029B043B9845A8
:1056580004D307E0984504F1FF3403D253F8042932
:10566800002AF7D0C9F810405146484601F06EFEAE
:1056780000282CDB40460023013655F8041BD0F8DF
:1056880000C08AB29A1A1FFA8CFE0B0C7244C3EB44
:105698001C4303EB224392B242EA0342AF4240F872
:1056A800042B4FEA2343E8D258F8242008EB84035C
:1056B8006AB9043B984504D307E0984504F1FF34E0
:1056C80003D253F80429002AF7D0C9F8104030460D
:1056D80005B0BDE8F08F002005B0BDE8F08F00BF31
:1056E8002DE9F04F90469946016C99B00446CDE9F2
:1056F8000489259D41B10123426C93408B604A6027
:1057080001F0CEFB00232364B9F1000AB4BF0123E2
:1057180000232B60764BBCBF2AF0004ACDF814A0BA
:1057280033EA0A0300F0AA80DDE90423104619468B
:1057380000220023CDE90A01FBF764FC074670B19B
:105748000123249A1360269B002B00F0E682694807
:105758001860431E0393039819B0BDE8F08F16AB89
:10576800019317AB00932046DDE90A2301F0B4FE4C
:105778005FEA1A56054640F09780DDE916763E4402
:1057880006F23240202840F3B783C0F140000AFAFD
:1057980000FA06F2124028FA00F04AEA0000FAF786
:1057A80035FF0123013E0F93A1F1F8710022524BFE
:1057B800FAF7EEFD48A3D3E90023FBF7BBF948A3AA
:1057C800D3E90023FAF7E6FD804630468946FAF722
:1057D8002DFF45A3D3E90023FBF7ACF902460B469E
:1057E80040464946FAF7D6FD80468946FBF752FC03
:1057F80000228346002340464946FBF70DFC00285B
:1058080040F07E82BBF1160F00F26D82DDE90A01DD
:105818003A4B03EBCB03D3E90023FBF7FDFB00284E
:1058280072D00023BE1B0E93731E0BF1FF3B069331
:1058380000F1608200230993BBF1000F6BDA099B2A
:10584800CDF81CB0A3EB0B030993CBF100030D9328
:10585800229B4FF0000B092B66D8052B40F34A8397
:105868000026043B2293229B023B032B00F26C860A
:10587800DFE813F061045E045504380442F20F7344
:10588800249ACAF3130A13605AEA08031AD1269B0A
:10589800002B00F068861A4B03930833269A039866
:1058A800136019B0BDE8F08FDDE90A12C2F31303E3
:1058B800084643F07F510F97A6F2FF36169F41F432
:1058C800401173E7269B002B40F0EF830D4B0393A9
:1058D80041E700BFAFF3008061436F63A787D23F02
:1058E800B3C8608B288AC63FFB799F501344D33FC7
:1058F8000000F07F519A00080000F83FC09B0008A4
:10590800789A0008749A0008BE1B731E069300F16B
:105918008A840E900990069B5B44CDE9063B0023E0
:105928000D93229B092B98D9002322934FF0FF3324
:105938000126089300230C9623930021089B616499
:105948001293204601F086FA0390002800F004869E
:10595800039B2364089B0E2B00F21481002E00F099
:1059680011810799002940F36084AF4B01F00F02C1
:1059780003EBC2030A46D3E900674FEA2118D105B1
:1059880040F11784DDE90A01A84B4FF0030AD3E977
:105998000823FBF7F9F9CDE9100108F00F08B8F171
:1059A800000F13D0DFF8849218F0010F09D0D9E95D
:1059B800002330463946FBF7BDF806460F460AF184
:1059C800010A5FEA680809F10809EDD1DDE910016B
:1059D80032463B46FBF7D8F9804689460E9B43B1D1
:1059E800002240464946924BFBF716FB002840F040
:1059F80035855046FAF71AFE42464B46FBF79AF8A9
:105A08008C4B0022FAF7C6FCA1F15073CDE91001C6
:105A18001193089B002B00F09780079B1493089B19
:105A280013930C9B002B00F0A984139A7E4B002043
:105A380003EBC20353E902237F49FBF7A5F9DDE92C
:105A48001023FAF7A5FCCDE9100149464046FBF7BB
:105A580021FB0746FAF7EAFD02460B46404649464F
:105A6800FAF796FCDDE91023039E303706F8017B30
:105A780080468946FBF7D0FA002840F02E85CDF8FD
:105A880054B00027DDE910AB1095139D13942AE05C
:105A98000137AF4280F22E85504659460022674BA7
:105AA800FBF748F80022654B82468B46404649463C
:105AB800FBF740F889468046FBF7ECFA0446FAF70C
:105AC800B5FD02460B4640464946FAF761FC3034BC
