:020000040800F2
:1000000000C00020E5350008B1110008B711000854
:10001000BD110008C3110008C9110008000000004C
:10002000000000000000000000000000CF110008E8
:10003000DB11000800000000E7110008F3110008C0
:100040002D3600082D3600082D3600082D36000804
:100050002D3600082D3600082D3600082D360008F4
:100060002D3600082D3600082D3600082D360008E4
:100070002D3600082D3600082D3600082D360008D4
:10008000011200082D3600082D3600082D36000814
:100090002D3600082D3600082D3600082D360008B4
:1000A0002D3600082D3600082D3600082D360008A4
:1000B0002D3600082D3600082D3600082D36000894
:1000C0002D3600082D3600082D3600082D36000884
:1000D0002D3600082D360008151200082D360008B0
:1000E0002D3600082D3600082D3600082D36000864
:1000F0002D3600082D3600082D3600082D36000854
:100100002D3600082D3600082D3600082D36000843
:100110002D3600082D3600082D3600082D36000833
:100120002D3600082D3600082D3600082D36000823
:1001300000000000000000000000000000000000BF
:1001400000000000000000000000000000000000AF
:10015000000000000000000000000000000000009F
:10016000000000000000000000000000000000008F
:10017000000000000000000000000000000000007F
:10018000000000000000000000000000000000006F
:10019000000000000000000000000000000000005F
:1001A000000000000000000000000000000000004F
:1001B000000000000000000000000000000000003F
:1001C000000000000000000000000000000000002F
:1001D000000000000000000000000000000000001F
:0401E0005FF8E0F1F3
:1001E80010B5054C237833B9044B13B10448AFF369
:1001F80000800123237010BDB80900200000000012
:10020800D896000808B5034B1BB103490348AFF360
:10021800008008BD00000000BC090020D896000836
:10022800844641EA000313F0030349D1403A23D33B
:100238000B6803604B6843608B688360CB68C3605E
:100248000B6903614B6943618B698361CB69C36146
:100258000B6A03624B6A43628B6A8362CB6AC3622E
:100268000B6B03634B6B43638B6B8363CB6BC36316
:1002780040304031403ADBD230320BD30B68036058
:100288004B6843608B688360CB68C3601030103163
:10029800103AF3D20C3205D351F8043B40F8043B32
:1002A800043AF9D2043208D0D2071CBF11F8013B36
:1002B80000F8013B01D30B8803806046704700BFFC
:1002C800082A13D38B07B1D010F00303AED0C3F1C3
:1002D8000403D21ADB071CBF11F8013B00F8013BED
:1002E800A4D331F8023B20F8023B9FE7043AD9D364
:1002F800013A11F8013B00F8013BF9D20B78037081
:100308004B7843708B7883706046704781F000416A
:1003180002E000BF83F0004330B54FEA41044FEAE2
:10032800430594EA050F08BF90EA020F1FBF54EA7D
:10033800000C55EA020C7FEA645C7FEA655C00F019
:10034800E2804FEA5454D4EB5555B8BF6D420CDDEA
:100358002C4480EA020281EA030382EA000083EA6D
:10036800010180EA020281EA0303362D88BF30BD0D
:1003780011F0004F4FEA01314FF4801C4CEA113163
:1003880002D0404261EB410113F0004F4FEA0333C2
:100398004CEA133302D0524263EB430394EA050F4D
:1003A80000F0A780A4F10104D5F1200E0DDB02FABC
:1003B8000EFC22FA05F2801841F1000103FA0EF250
:1003C800801843FA05F359410EE0A5F120050EF116
:1003D800200E012A03FA0EFC28BF4CF0020C43FA47
:1003E80005F3C01851EBE37101F0004507D54FF054
:1003F800000EDCF1000C7EEB00006EEB0101B1F5A4
:10040800801F1BD3B1F5001F0CD349085FEA3000E9
:100418004FEA3C0C04F101044FEA445212F5800FF4
:1004280080F09A80BCF1004F08BF5FEA500C50F191
:10043800000041EB045141EA050130BD5FEA4C0C74
:10044800404141EB0101013C28BFB1F5801FE9D2D1
:1004580091F0000F04BF01460020B1FA81F308BFF4
:100468002033A3F10B03B3F120020CDA0C3208DDC0
:1004780002F1140CC2F10C0201FA0CF021FA02F19B
:100488000CE002F11402D8BFC2F1200C01FA02F10B
:1004980020FA0CFCDCBF41EA0C019040E41AA2BF30
:1004A80001EB0451294330BD6FEA04041F3C1CDAF8
:1004B8000C340EDC04F11404C4F1200220FA04F018
:1004C80001FA02F340EA030021FA04F345EA0301C2
:1004D80030BDC4F10C04C4F1200220FA02F001FA84
:1004E80004F340EA0300294630BD21FA04F0294606
:1004F80030BD94F0000F83F4801306BF81F480119F
:100508000134013D4EE77FEA645C18BF7FEA655C11
:1005180029D094EA050F08BF90EA020F05D054EAE3
:10052800000C04BF1946104630BD91EA030F1EBFE8
:100538000021002030BD5FEA545C05D140004941EC
:1005480028BF41F0004130BD14F580043CBF01F5DF
:10055800801130BD01F0004545F0FE4141F47001C5
:100568004FF0000030BD7FEA645C1ABF19461046A0
:100578007FEA655C1CBF0B46024650EA013406BFA1
:1005880052EA033591EA030F41F4002130BD00BF60
:1005980090F0000F04BF0021704730B54FF480641D
:1005A80004F132044FF000054FF0000150E700BF9E
:1005B80090F0000F04BF0021704730B54FF48064FD
:1005C80004F1320410F0004548BF40424FF00001EA
:1005D8003EE700BF42004FEAE2014FEA31014FEA2D
:1005E80002701FBF12F07F4393F07F4F81F060517C
:1005F800704732F07F4208BF704793F07F4F04BFC7
:1006080041F40021704730B54FF4607401F00045A3
:1006180021F000411CE700BF50EA010208BF704703
:1006280030B54FF000050AE050EA010208BF7047F4
:1006380030B511F0004502D5404261EB41014FF45D
:10064800806404F132045FEA915C3FF4D8AE4FF065
:1006580003025FEADC0C18BF03325FEADC0C18BF48
:10066800033202EBDC02C2F1200300FA03FC20FA99
:1006780002F001FA03FE40EA0E0021FA02F11444E6
:10068800BDE600BF70B54FF0FF0C4CF4E06C1CEAFF
:1006980011541DBF1CEA135594EA0C0F95EA0C0F70
:1006A80000F0DEF82C4481EA030621EA4C5123EAE3
:1006B8004C5350EA013518BF52EA033541F4801112
:1006C80043F4801338D0A0FB02CE4FF00005E1FBC5
:1006D80002E506F00042E0FB03E54FF00006E1FB0F
:1006E80003569CF0000F18BF4EF0010EA4F1FF0452
:1006F800B6F5007F64F5407404D25FEA4E0E6D4192
:1007080046EB060642EAC62141EA55514FEAC520A2
:1007180040EA5E504FEACE2EB4F1FD0C88BFBCF51E
:10072800E06F1ED8BEF1004F08BF5FEA500E50F1CF
:10073800000041EB045170BD06F0004646EA010195
:1007480040EA020081EA0301B4EB5C04C2BFD4EBC7
:100758000C0541EA045170BD41F480114FF0000EC0
:10076800013C00F3AB8014F1360FDEBF002001F02E
:10077800004170BDC4F10004203C35DA0C341BDCA8
:1007880004F11404C4F1200500FA05F320FA04F07A
:1007980001FA05F240EA020001F0004221F00041AE
:1007A80010EBD37021FA04F642EB06015EEA430E21
:1007B80008BF20EAD37070BDC4F10C04C4F1200551
:1007C80000FA04F320FA05F001FA04F240EA020004
:1007D80001F0004110EBD37041F100015EEA430ED5
:1007E80008BF20EAD37070BDC4F1200500FA05F2F5
:1007F8004EEA020E20FA04F301FA05F243EA020374
:1008080021FA04F001F0004121FA04F220EA020082
:1008180000EBD3705EEA430E08BF20EAD37070BDC8
:1008280094F0000F0FD101F00046400041EB0101A8
:1008380011F4801F08BF013CF7D041EA060195F08A
:10084800000F18BF704703F00046520043EB030344
:1008580013F4801F08BF013DF7D043EA0603704731
:1008680094EA0C0F0CEA135518BF95EA0C0F0CD03C
:1008780050EA410618BF52EA4306D1D181EA030182
:1008880001F000414FF0000070BD50EA410606BF7C
:100898001046194652EA430619D094EA0C0F02D1C1
:1008A80050EA013613D195EA0C0F05D152EA033606
:1008B8001CBF104619460AD181EA030101F0004124
:1008C80041F0FE4141F470014FF0000070BD41F06D
:1008D800FE4141F4780170BD70B54FF0FF0C4CF447
:1008E800E06C1CEA11541DBF1CEA135594EA0C0F66
:1008F80095EA0C0F00F0A7F8A4EB050481EA030EB3
:1009080052EA03354FEA013100F088804FEA033399
:100918004FF0805545EA131343EA12634FEA022267
:1009280045EA111545EA10654FEA00260EF0004128
:100938009D4208BF964244F1FD0404F5407402D27A
:100948005B084FEA3202B61A65EB03055B084FEA0B
:1009580032024FF480104FF4002CB6EB020E75EB08
:10096800030E22BFB61A754640EA0C005B084FEA30
:100978003202B6EB020E75EB030E22BFB61A7546AD
:1009880040EA5C005B084FEA3202B6EB020E75EBF8
:10099800030E22BFB61A754640EA9C005B084FEA70
:1009A8003202B6EB020E75EB030E22BFB61A75467D
:1009B80040EADC0055EA060E18D04FEA051545EA6C
:1009C80016754FEA06164FEAC30343EA52734FEA15
:1009D800C2025FEA1C1CC0D111F4801F0BD141EA8E
:1009E80000014FF000004FF0004CB6E711F4801FF3
:1009F80004BF01430020B4F1FD0C88BFBCF5E06FD3
:100A08003FF6AFAEB5EB030C04BFB6EB020C5FEAE2
:100A1800500C50F1000041EB045170BD0EF0004E37
:100A28004EEA113114EB5C04C2BFD4EB0C0541EA69
:100A3800045170BD41F480114FF0000E013C90E666
:100A480045EA060E8DE60CEA135594EA0C0F08BF2A
:100A580095EA0C0F3FF43BAF94EA0C0F0AD150EA29
:100A680001347FF434AF95EA0C0F7FF425AF1046BC
:100A780019462CE795EA0C0F06D152EA03353FF4E4
:100A8800FDAE1046194622E750EA410618BF52EA61
:100A980043067FF4C5AE50EA41047FF40DAF52EA35
:100AA80043057FF4EBAE12E74FF0FF3C06E000BFD2
:100AB8004FF0010C02E000BF4FF0010C4DF804CDDF
:100AC8004FEA410C7FEA6C5C4FEA430C18BF7FEA9F
:100AD8006C5C1BD001B050EA410C0CBF52EA430CCD
:100AE80091EA030F02BF90EA020F0020704710F14D
:100AF800000F91EA030F58BF994208BF90422CBFDC
:100B0800D8176FEAE37040F0010070474FEA410CD4
:100B18007FEA6C5C02D150EA013C07D14FEA430CF2
:100B28007FEA6C5CD6D152EA033CD3D05DF8040B63
:100B3800704700BF8446104662468C461946634695
:100B480000E000BF01B5FFF7B7FF002848BF10F16C
:100B5800000F01BD4DF808EDFFF7F4FF0CBF0120B1
:100B680000205DF808FB00BF4DF808EDFFF7EAFF2D
:100B780034BF012000205DF808FB00BF4DF808EDE8
:100B8800FFF7E0FF94BF012000205DF808FB00BFDD
:100B98004DF808EDFFF7CEFF94BF012000205DF867
:100BA80008FB00BF4DF808EDFFF7C4FF34BF012074
:100BB80000205DF808FB00BF4FEA410C7FEA6C5C3F
:100BC80002D150EA013C0AD14FEA430C7FEA6C5C3F
:100BD80002D152EA033C02D14FF0000070474FF0B7
:100BE800010070474FEA410212F5001215D211D5E3
:100BF8006FF47873B3EB625212D94FEAC12343F012
:100C0800004343EA505311F0004F23FA02F018BF93
:100C1800404270474FF00000704750EA013005D15C
:100C280011F0004008BF6FF0004070474FF000001F
:100C3800704700BF53B94AB9002908BF00281CBF34
:100C48004FF0FF314FF0FF3000F076B9ADF1080CEE
:100C58006DE904CE00F006F8DDF804E0DDE90223D2
:100C680004B070472DE9F047089E0D4604468846B3
:100C7800002B4DD18A42944668D9B2FA82F252B119
:100C880001FA02F3C2F1200120FA01F10CFA02FC88
:100C980041EA030894404FEA1C41B8FBF1F71FFAF8
:100CA8008CFE01FB178807FB0EF0230C43EA084370
:100CB80098420AD91CEB030307F1FF3580F01E8127
:100CC800984240F21B81023F63441B1AB3FBF1F0C8
:100CD80001FB103300FB0EFEA4B244EA0344A64510
:100CE8000AD91CEB040400F1FF3380F00981A64502
:100CF80040F20681644402380021A4EB0E0440EA65
:100D080007401EB10023D440C6E90043BDE8F08780
:100D18008B4208D9002E00F0EE800021C6E90005BC
:100D28000846BDE8F087B3FA83F100294AD1AB42FF
:100D380002D3824200F2FC80841A65EB030301208F
:100D48009846002EE2D0C6E90048DFE702B9FFDE88
:100D5800B2FA82F2002A40F09180A1EB0C00012146
:100D68004FEA1C471FFA8CFEB0FBF7F307FB130092
:100D7800250C45EA00450EFB03F0A84208D91CEBF8
:100D8800050503F1FF3802D2A84200F2CE8043469F
:100D98002D1AB5FBF7F007FB10550EFB00FEA4B2A9
:100DA80044EA0544A64508D91CEB040400F1FF35C4
:100DB80002D2A64500F2B6802846A4EB0E0440EA0B
:100DC80003409EE7C1F120078B4022FA07FC4CEA5A
:100DD800030C25FA07FA4FEA1C49BAFBF9F820FA7E
:100DE80007F309FB18AA8D401FFA8CFE1D4300FA71
:100DF80001F308FB0EF02C0C44EA0A44A04202FA64
:100E080001F20BD91CEB040408F1FF3A80F088804A
:100E1800A04240F28580A8F102086444241AB4FB79
:100E2800F9F009FB104400FB0EFEADB245EA04449C
:100E3800A64508D91CEB040400F1FF356CD2A64581
:100E48006AD90238644440EA0840A0FB0295A4EB42
:100E58000E04AC42C846AE4656D353D0002E69D0D5
:100E6800B3EB080264EB0E0422FA01F304FA07F765
:100E78001F43CC40C6E90074002147E70CFA02FC86
:100E8800C2F1200125FA01F34FEA1C4720FA01F1CB
:100E980095400D43B3FBF7F107FB11331FFA8CFEA6
:100EA800280C40EA034001FB0EF3834204FA02F4E3
:100EB80008D91CEB000001F1FF382FD283422DD94D
:100EC80002396044C01AB0FBF7F307FB1300ADB258
:100ED80045EA004503FB0EF0A84208D91CEB0505BE
:100EE80003F1FF3816D2A84214D9023B6544281AE8
:100EF80043EA014138E73146304607E72F46E4E642
:100F08001846F9E64B45A9D2B9EB020865EB0C0E79
:100F18000138A3E74346EAE7284694E74146D1E784
:100F2800D0467BE76444023847E7023B65442FE735
:100F3800084606E73146E9E6704700BF80B582B04B
:100F480000AF0C4B5B690B4A43F001035361094B3B
:100F58005B6903F001037B607B680022002110209D
:100F680000F0D1FB102000F0EAFB00BF0837BD46B7
:100F780080BD00BF0010024080B586B000AF07F109
:100F8800080300221A605A609A60DA60174B9B695E
:100F9800164A43F020039361144B9B6903F0200326
:100FA8007B607B68114B9B69104A43F00403936193
:100FB8000E4B9B6903F004033B603B68002204214D
:100FC8000B4801F05FF90423BB600123FB60002399
:100FD8003B6102237B6107F108031946044800F0CE
:100FE800BDFF00BF1837BD4680BD00BF00100240DE
:100FF8000014014080B500AF00F04CFA00F00BF887
:10100800FFF7BAFF00F012F9FFF798FF00F038F980
:1010180000F046F8FCE780B590B000AF07F1180380
:1010280028220021184602F023FB3B1D00221A60EB
:101038005A609A60DA601A610123BB614FF4803309
:10104800FB6100233B620123BB6202237B634FF4F5
:101058008033BB634FF4E013FB6307F118031846B2
:1010680001F028F90346002B01D000F065F80F23A2
:101078007B600223BB600023FB604FF480633B610D
:1010880000237B613B1D0221184601F095FB0346B6
:10109800002B01D000F050F800BF4037BD4680BD9E
:1010A80080B582B000AF00BF42F2107306221B4920
:1010B8001B4801F0F8FD0346002BF5D1174B002221
:1010C8009A71164A1749184800F0BAF900237B604C
:1010D8000CE07B68C3F10503104AD15C134A7B68B6
:1010E80013440A461A707B6801337B607B68052BC2
:1010F800EFDD0E4B00229A710C4A0D490A4800F0A8
:101108009FF90C49084800F09BF90849044800F089
:1011180097F900BF0837BD4680BD00BFD40900203D
:10112800280A002014970008E4090020DC090020A0
:10113800209700083097000880B400AF72B600BF4F
:10114800FEE7000080B485B000AF154B9B69144AD8
:1011580043F001039361124B9B6903F00103BB60E9
:10116800BB680F4BDB690E4A43F08053D3610C4BCD
:10117800DB6903F080537B607B680A4B5B68FB602C
:10118800FB6823F0E063FB60FB6843F00073FB60DF
:10119800044AFB68536000BF1437BD4680BC7047E3
:1011A800001002400000014080B400AFFEE780B4A8
:1011B80000AFFEE780B400AFFEE780B400AFFEE703
:1011C80080B400AFFEE780B400AF00BFBD4680BC6E
:1011D800704780B400AF00BFBD4680BC704780B484
:1011E80000AF00BFBD4680BC704780B500AF00F0BF
:1011F80097F900BF80BD000080B500AF024800F03D
:1012080071FC00BF80BD00BF6C0A002080B500AF34
:10121800024801F0EBFD00BF80BD00BF280A002096
:1012280080B400AF00BFBD4680BC704780B500AF3A
:10123800114B124A1A60104B4FF4E1325A600E4BB0
:1012480000229A600C4B0022DA600B4B00221A61D4
:10125800094B0C225A61084B00229A61064B002266
:10126800DA61054801F040FC0346002B01D0FFF786
:1012780063FF00BF80BD00BFE409002000380140C3
:1012880080B500AF114B124A1A60104B4FF416523A
:101298005A600E4B00229A600C4B0022DA600B4B0E
:1012A80000221A61094B0C225A61084B00229A61EC
:1012B800064B0022DA61054801F016FC0346002BB4
:1012C80001D0FFF739FF00BF80BD00BF280A00200A
:1012D8000044004080B58AB000AF786007F1180379
:1012E80000221A605A609A60DA607B681B684E4A6E
:1012F800934232D14D4B9B694C4A43F480439361EE
:101308004A4B9B6903F480437B617B69474B9B692C
:10131800464A43F004039361444B9B6903F004037A
:101328003B613B694FF40073BB610223FB610323FC
:101338007B6207F1180319463D4800F00FFE4FF491
:101348008063BB610023FB6100233B6207F1180344
:101358001946374800F002FE62E07B681B68354A90
:1013680093425DD1314BDB69304A43F40033D3619A
:101378002E4BDB6903F40033FB60FB682B4B9B6946
:101388002A4A43F004039361284B9B6903F0040342
:10139800BB60BB680423BB610223FB6103237B6240
:1013A80007F118031946224800F0D8FD0823BB614D
:1013B8000023FB6100233B6207F1180319461C4810
:1013C80000F0CCFD1C4B1D4A1A601B4B00225A60D2
:1013D800194B00229A60184B8022DA60164B0022C3
:1013E8001A61154B00225A61134B00229A61124B65
:1013F8000022DA61104800F0BDF90346002B01D045
:10140800FFF79AFE7B680C4A9A630B4A7B68536223
:1014180000220021262000F076F9262000F08FF91E
:1014280000BF2837BD4680BD00380140001002408B
:1014380000080140004400406C0A00206C00024093
:101448000EB480B5B7B000AF786007F1E803C7F80D
:10145800D03007F10803D7F8D020D7F8E4101846A1
:1014680002F086F907F10803184602F053F903461B
:10147800A7F8D630B7F8D62007F108014FF0FF33A8
:10148800786801F07EFB00BFDC37BD46BDE88040D0
:1014980003B0704780B500AF084B1B68074A43F09C
:1014A80010031360032000F023F90F2000F008F860
:1014B800FFF748FE0023184680BD00BF0020024009
:1014C80080B582B000AF7860124B1A68124B1B7857
:1014D80019464FF47A73B3FBF1F3B2FBF3F31846F2
:1014E80000F03BF90346002B01D001230EE07B6896
:1014F8000F2B0AD8002279684FF0FF3000F003F96B
:10150800064A7B681360002300E001231846083769
:10151800BD4680BD00000020080000200400002017
:1015280080B400AF054B1B781A46054B1B68134463
:10153800034A136000BFBD4680BC70470800002006
:10154800B00A002080B400AF024B1B681846BD46A5
:1015580080BC7047B00A002080B485B000AF7860C6
:101568007B6803F00703FB600C4BDB68BB60BA6861
:101578004FF6FF031340BB60FB681A02BB681343B6
:1015880043F0BF6343F40033BB60044ABB68D360D5
:1015980000BF1437BD4680BC704700BF00ED00E0B7
:1015A80080B400AF044BDB681B0A03F0070318463E
:1015B800BD4680BC704700BF00ED00E080B483B03A
:1015C80000AF0346FB7197F90730002B0BDBFB7963
:1015D80003F01F02064997F907305B09012000FA5A
:1015E80002F241F8232000BF0C37BD4680BC70478B
:1015F80000E100E080B483B000AF03463960FB71BE
:1016080097F90730002B0ADB3B68DAB20C4997F9E7
:1016180007301201D2B20B4483F800230AE03B687A
:10162800DAB20849FB7903F00F03043B1201D2B286
:101638000B441A7600BF0C37BD4680BC704700BF0C
:1016480000E100E000ED00E080B489B000AFF86090
:10165800B9607A60FB6803F00703FB61FB69C3F1BB
:101668000703042B28BF0423BB61FB690433062B43
:1016780002D9FB69033B00E000237B614FF0FF3296
:10168800BB6902FA03F3DA43BB681A407B699A40E4
:101698004FF0FF317B6901FA03F3D9437B680B40B4
:1016A800134318462437BD4680BC704780B582B0C6
:1016B80000AF78607B68013BB3F1807F01D30123E1
:1016C8000FE00A4A7B68013B53600F214FF0FF305F
:1016D800FFF790FF054B00229A60044B07221A601F
:1016E800002318460837BD4680BD00BF10E000E063
:1016F80080B582B000AF78607868FFF72DFF00BF33
:101708000837BD4680BD80B586B000AF0346B960D6
:101718007A60FB7300237B61FFF742FF78617A6888
:10172800B9687869FFF790FF024697F90F301146BC
:101738001846FFF75FFF00BF1837BD4680BD80B56C
:1017480082B000AF0346FB7197F907301846FFF7E0
:1017580035FF00BF0837BD4680BD80B582B000AFF9
:1017680078607868FFF7A2FF034618460837BD4639
:1017780080BD000080B485B000AF78600023FB60B6
:101788007B68002B01D1012359E07B681B681A464E
:101798002D4B9A420FD87B681B681A462B4B134473
:1017A8002B4AA2FB03231B099A007B681A647B68F7
:1017B800284ADA630EE07B681B681A46264B1344F6
:1017C800234AA2FB03231B099A007B681A647B68DF
:1017D800224ADA637B68022283F821207B681B682F
:1017E8001B68FB60FB6823F47F5323F03003FB6026
:1017F8007B685A687B689B681A437B68DB681A4376
:101808007B681B691A437B685B691A437B689B6921
:101818001A437B68DB691343FA681343FB607B68F0
:101828001B68FA681A607B6800229A637B68012249
:1018380083F821207B68002283F8202000231846A3
:101848001437BD4680BC704707040240F8FFFDBF4F
:10185800CDCCCCCC00000240F8FBFDBF0004024018
:1018680080B485B000AF78600023FB737B6893F881
:101878002130022B08D07B6804229A637B680022FF
:1018880083F82020012320E07B681B681A687B68A6
:101898001B6822F00E021A607B681B681A687B6856
:1018A8001B6822F001021A607B681A6C7B68DB6B8C
:1018B800012101FA02F25A607B68012283F8212093
:1018C8007B68002283F82020FB7B18461437BD462E
:1018D80080BC704780B584B000AF78600023FB738C
:1018E8007B6893F82130022B05D07B6804229A6329
:1018F8000123FB73D6E07B681B681A687B681B684A
:1019080022F00E021A607B681B681A687B681B68E5
:1019180022F001021A607B681B681A46644B9A42DF
:1019280058D97B681B68634A93424FD07B681B6811
:10193800614A934248D07B681B68604A934240D012
:101948007B681B685E4A934238D07B681B685D4A97
:10195800934230D07B681B685B4A934228D07B68EF
:101968001B68534A934220D07B681B68574A9342AE
:1019780019D07B681B68564A934212D07B681B6853
:10198800544A93420AD07B681B68534A934202D157
:101998004FF480531BE04FF4803318E04FF480730A
:1019A80015E0102313E0012311E04FF080730EE0DF
:1019B8004FF480130BE04FF4803308E04FF480536A
:1019C80005E04FF4807302E0102300E00123434A4E
:1019D800536057E07B681B68364A93424FD07B6858
:1019E8001B68354A934248D07B681B68334A934248
:1019F80040D07B681B68324A934238D07B681B68AA
:101A0800304A934230D07B681B682F4A934228D0D3
:101A18007B681B68264A934220D07B681B682B4A48
:101A2800934219D07B681B68294A934212D07B687D
:101A38001B68284A93420AD07B681B68264A93424F
:101A480002D14FF480531BE04FF4803318E04FF479
:101A5800807315E0102313E0012311E04FF0807329
:101A68000EE04FF480130BE04FF4803308E04FF49E
:101A7800805305E04FF4807302E0102300E0012357
:101A8800174A53607B68012283F821207B68002273
:101A980083F820207B685B6B002B03D07B685B6B33
:101AA80078689847FB7B18461037BD4680BD00BF55
:101AB80080000240080002401C0002403000024042
:101AC80044000240580002406C00024008040240F2
:101AD8001C04024030040240440402400004024056
:101AE8000000024080B584B000AF78607B68DB6B93
:101AF8001B68FB607B681B681B68BB607B681B6C92
:101B080004229A40FB681340002B00F0F180BB6868
:101B180003F00403002B00F0EB807B681B681B6854
:101B280003F02003002B07D17B681B681A687B68C9
:101B38001B6822F004021A607B681B681A465F4B18
:101B48009A4258D97B681B685D4A93424FD07B689C
:101B58001B685C4A934248D07B681B685A4A934288
:101B680040D07B681B68594A934238D07B681B6811
:101B7800574A934230D07B681B68564A934228D014
:101B88007B681B684D4A934220D07B681B68524A89
:101B9800934219D07B681B68504A934212D07B68E5
:101BA8001B684F4A93420AD07B681B684D4A934290
:101BB80002D14FF480431BE04FF4802318E04FF428
:101BC800806315E0402313E0042311E04FF08063A5
:101BD8000EE04FF480030BE04FF4802308E04FF44D
:101BE800804305E04FF4806302E0402300E00423D3
:101BF8003D4A536057E07B681B68314A93424FD097
:101C08007B681B682F4A934248D07B681B682E4A22
:101C1800934240D07B681B682C4A934238D07B683B
:101C28001B682B4A934230D07B681B68294A934231
:101C380028D07B681B68214A934220D07B681B68A8
:101C4800254A934219D07B681B68244A934212D0D4
:101C58007B681B68224A93420AD07B681B68214A2A
:101C6800934202D14FF480431BE04FF4802318E0E5
:101C78004FF4806315E0402313E0042311E04FF094
:101C880080630EE04FF480030BE04FF4802308E0FC
:101C98004FF4804305E04FF4806302E0402300E006
:101CA8000423124A53607B68DB6A002B00F03681FC
:101CB8007B68DB6A7868984730E100BF80000240A3
:101CC800080002401C00024030000240440002406C
:101CD800580002406C000240080402401C04024004
:101CE8003004024044040240000402400000024064
:101CF8007B681B6C02229A40FB681340002B00F0A3
:101D0800DD80BB6803F00203002B00F0D7807B68FE
:101D18001B681B6803F02003002B0BD17B681B6832
:101D28001A687B681B6822F00A021A607B68012225
:101D380083F821207B681B681A467B4B9A4258D946
:101D48007B681B68794A93424FD07B681B68784A46
:101D5800934248D07B681B68764A934240D07B68A0
:101D68001B68754A934238D07B681B68734A934254
:101D780030D07B681B68724A934228D07B681B6806
:101D8800694A934220D07B681B686E4A934219D0F7
:101D98007B681B686C4A934212D07B681B686B4A4D
:101DA80093420AD07B681B68694A934202D14FF478
:101DB80000531BE04FF4003318E04FF4007315E0B4
:101DC800202313E0022311E04FF000730EE04FF4DC
:101DD80000130BE04FF4003308E04FF4005305E024
:101DE8004FF4007302E0202300E00223594A5360B5
:101DF80057E07B681B684D4A93424FD07B681B684D
:101E08004B4A934248D07B681B684A4A934240D069
:101E18007B681B68484A934238D07B681B68474AEE
:101E2800934230D07B681B68454A934228D07B6830
:101E38001B683D4A934220D07B681B68414A934205
:101E480019D07B681B68404A934212D07B681B6894
:101E58003E4A93420AD07B681B683D4A934202D1AE
:101E68004FF400531BE04FF4003318E04FF40073B5
:101E780015E0202313E0022311E04FF000730EE079
:101E88004FF400130BE04FF4003308E04FF4005315
:101E980005E04FF4007302E0202300E002232E4AFD
:101EA80053607B68002283F820207B689B6A002BA4
:101EB80034D07B689B6A786898472FE07B681B6CF6
:101EC80008229A40FB681340002B28D0BB6803F017
:101ED8000803002B23D07B681B681A687B681B6883
:101EE80022F00E021A607B681A6C7B68DB6B01219A
:101EF80001FA02F25A607B6801229A637B68012228
:101F080083F821207B68002283F820207B681B6BE4
:101F1800002B04D07B681B6B7868984700BF00BF14
:101F28001037BD4680BD00BF800002400800024057
:101F38001C000240300002404400024058000240A9
:101F48006C000240080402401C04024030040240B5
:101F580044040240000402400000024080B48BB0F8
:101F680000AF7860396000237B6200233B6279E12F
:101F780001227B6A02FA03F3FB613B681B68FA697A
:101F88001340BB61BA69FB699A4240F068813B68BB
:101F98005B68964A93425ED0944A934275D8944AB5
:101FA800934258D0924A93426FD8924A934252D061
:101FB800904A934269D8904A93424CD08E4A9342B1
:101FC80063D88E4A934246D08C4A93425DD8122BEE
:101FD8002AD8122B59D801A252F823F05F20000802
:101FE800392000084B2000088D20000893200008A5
:101FF80093200008932000089320000893200008ED
:1020080093200008932000089320000893200008DC
:1020180093200008932000089320000893200008CC
:102028004120000855200008754A934213D02CE03F
:102038003B68DB683B6229E03B68DB6804333B6252
:1020480024E03B68DB6808333B621FE03B68DB68E1
:102058000C333B621AE03B689B68002B02D10423D7
:102068003B6213E03B689B68012B05D108233B6268
:102078007B68FA691A6109E008233B627B68FA69A0
:102088005A6103E000233B6200E000BFBB69FF2BFD
:1020980001D87B6801E07B6804337B61BB69FF2B57
:1020A80002D87B6A9B0002E07B6A083B9B003B618D
:1020B8007B691A680F213B6901FA03F3DB431A4075
:1020C800396A3B6901FA03F31A437B691A603B6872
:1020D8005B6803F08053002B00F0C180494B9B697B
:1020E800484A43F001039361464B9B6903F001039F
:1020F800BB60BB68444A7B6A9B08023352F82330B2
:10210800FB607B6A03F003039B000F2202FA03F3D0
:10211800DB43FA681340FB607B683C4A93421FD05C
:102128007B683B4A934219D07B683A4A934213D062
:102138007B68394A93420DD07B68384A934207D06E
:102148007B68374A934201D105230AE0062308E059
:10215800042306E0032304E0022302E0012300E055
:1021680000237A6A02F0030292009340FA6813434C
:10217800FB6025497B6A9B080233FA6841F82320F3
:102188003B685B6803F48033002B06D0254B1A6844
:102198002449BB6913430B6006E0224B1A68BB69EC
:1021A800DB43204913400B603B685B6803F4003352
:1021B800002B06D01B4B5A681A49BB6913434B6066
:1021C80006E0184B5A68BB69DB43164913404B605D
:1021D8003B685B6803F48013002B25D0114B9A6889
:1021E8001049BB6913438B6025E000BF0000321023
:1021F8000000311000002210000021100000121011
:1022080000001110001002400000014000080140C9
:10221800000C01400010014000140140001801406A
:10222800001C014000040140154B9A68BB69DB4360
:10223800134913408B603B685B6803F40013002B61
:1022480006D00F4BDA680E49BB691343CB6006E032
:102258000B4BDA68BB69DB4309491340CB607B6AE7
:1022680001337B623B681A687B6A22FA03F3002B0E
:102278007FF47EAE00BF00BF2C37BD4680BC7047E0
:102288000004014080B483B000AF78600B467B80C7
:1022980013467B707B78002B03D07A887B681A61A1
:1022A80003E07B881A047B681A6100BF0C37BD46BF
:1022B80080BC704780B586B000AF78607B68002B23
:1022C80001D1012372E27B681B6803F00103002B34
:1022D80000F08780924B5B6803F00C03042B0CD052
:1022E8008F4B5B6803F00C03082B12D18C4B5B6897
:1022F80003F48033B3F5803F0BD1894B1B6803F49B
:102308000033002B6CD07B685B68002B68D10123FD
:102318004CE27B685B68B3F5803F06D1804B1B6855
:102328007F4A43F4803313602EE07B685B68002BA0
:102338000CD17B4B1B687A4A23F480331360784BAB
:102348001B68774A23F4802313601DE07B685B6871
:10235800B3F5A02F0CD1724B1B68714A43F480234C
:1023680013606F4B1B686E4A43F4803313600BE0B5
:102378006B4B1B686A4A23F480331360684B1B68F5
:10238800674A23F4802313607B685B68002B13D0B3
:10239800FFF7D8F8386108E0FFF7D4F802463B6940
:1023A800D31A642B01D9032300E25D4B1B6803F4A5
:1023B8000033002BF0D014E0FFF7C4F8386108E0D0
:1023C800FFF7C0F802463B69D31A642B01D90323EF
:1023D800ECE1534B1B6803F40033002BF0D100E011
:1023E80000BF7B681B6803F00203002B63D04C4BD3
:1023F8005B6803F00C03002B0BD0494B5B6803F0C0
:102408000C03082B1CD1464B5B6803F48033002B6C
:1024180016D1434B1B6803F00203002B05D07B68E1
:102428001B69012B01D00123C0E13D4B1B6823F040
:10243800F8027B685B69DB00394913430B603AE0BB
:102448007B681B69002B20D0364B01221A60FFF7EE
:1024580079F8386108E0FFF775F802463B69D31A46
:10246800022B01D90323A1E12D4B1B6803F00203C2
:10247800002BF0D02A4B1B6823F0F8027B685B69BD
:10248800DB00274913430B6015E0264B00221A6036
:10249800FFF758F8386108E0FFF754F802463B693F
:1024A800D31A022B01D9032380E11D4B1B6803F0CB
:1024B8000203002BF0D17B681B6803F00803002B94
:1024C8003AD07B689B69002B19D0174B01221A6000
:1024D800FFF738F8386108E0FFF734F802463B693F
:1024E800D31A022B01D9032360E10D4B5B6A03F079
:1024F8000203002BF0D0012000F0D8FA1CE00A4BB0
:1025080000221A60FFF71EF838610FE0FFF71AF88B
:1025180002463B69D31A022B08D9032346E100BFC0
:10252800001002400000424280044242924B5B6A23
:1025380003F00203002BE9D17B681B6803F0040356
:10254800002B00F0A6800023FB758B4BDB6903F0A2
:102558008053002B0DD1884BDB69874A43F08053A9
:10256800D361854BDB6903F08053BB60BB680123F3
:10257800FB75824B1B6803F48073002B18D17F4BCB
:102588001B687E4A43F480731360FEF7DBFF3861F3
:1025980008E0FEF7D7FF02463B69D31A642B01D93E
:1025A800032303E1754B1B6803F48073002BF0D001
:1025B8007B68DB68012B06D16F4B1B6A6E4A43F0C0
:1025C800010313622DE07B68DB68002B0CD16A4B9A
:1025D8001B6A694A23F001031362674B1B6A664A48
:1025E80023F0040313621CE07B68DB68052B0CD125
:1025F800614B1B6A604A43F0040313625E4B1B6A1B
:102608005D4A43F0010313620BE05B4B1B6A5A4AB5
:1026180023F001031362584B1B6A574A23F0040343
:1026280013627B68DB68002B15D0FEF78BFF3861DF
:102638000AE0FEF787FF02463B69D31A41F2883267
:10264800934201D90323B1E04B4B1B6A03F0020309
:10265800002BEED014E0FEF775FF38610AE0FEF7B4
:1026680071FF02463B69D31A41F28832934201D97D
:1026780003239BE0404B1B6A03F00203002BEED1BF
:10268800FB7D012B05D13C4BDB693B4A23F0805392
:10269800D3617B68DB69002B00F08780364B5B6871
:1026A80003F00C03082B61D07B68DB69022B46D151
:1026B800334B00221A60FEF745FF386108E0FEF749
:1026C80041FF02463B69D31A022B01D903236DE06F
:1026D800294B1B6803F00073002BF0D17B681B6A41
:1026E800B3F5803F08D1244B5B6823F400327B6844
:1026F8009B68214913434B601F4B5B6823F474129A
:102708007B68196A7B685B6A0B431B4913434B6000
:102718001B4B01221A60FEF715FF386108E0FEF72F
:1027280011FF02463B69D31A022B01D903233DE06E
:10273800114B1B6803F00073002BF0D035E0104BF1
:1027480000221A60FEF7FEFE386108E0FEF7FAFE86
:1027580002463B69D31A022B01D9032326E0064B14
:102768001B6803F00073002BF0D11EE07B68DB6967
:10277800012B07D1012319E000100240007000402E
:10278800600042420B4B5B68FB60FB6803F48032DD
:102798007B681B6A9A4206D1FB6803F470127B6857
:1027A8005B6A9A4201D0012300E0002318461837DB
:1027B800BD4680BD0010024080B584B000AF78608F
:1027C80039607B68002B01D10123D0E06A4B1B687C
:1027D80003F007033A689A4210D9674B1B6823F045
:1027E800070265493B6813430B60634B1B6803F0A2
:1027F80007033A689A4201D00123B8E07B681B6856
:1028080003F00203002B20D07B681B6803F004034D
:10281800002B05D0594B5B68584A43F4E06353607A
:102828007B681B6803F00803002B05D0534B5B68DB
:10283800524A43F460535360504B5B6823F0F002F4
:102848007B689B684D4913434B607B681B6803F0AA
:102858000103002B40D07B685B68012B07D1474BF5
:102868001B6803F40033002B15D101237FE07B683C
:102878005B68022B07D1414B1B6803F00073002BE8
:1028880009D1012373E03D4B1B6803F00203002BC1
:1028980001D101236BE0394B5B6823F003027B68AD
:1028A8005B68364913434B60FEF74CFEF8600AE05C
:1028B800FEF748FE0246FB68D31A41F2883293427B
:1028C80001D9032353E02D4B5B6803F00C027B68AE
:1028D8005B689B009A42EBD1274B1B6803F0070308
:1028E8003A689A4210D2244B1B6823F00702224907
:1028F8003B6813430B60204B1B6803F007033A68DF
:102908009A4201D0012332E07B681B6803F004037C
:10291800002B08D0194B5B6823F4E0627B68DB6806
:10292800164913434B607B681B6803F00803002BB0
:1029380009D0124B5B6823F460527B681B69DB008B
:102948000E4913434B6000F021F802460B4B5B68BD
:102958001B0903F00F030A49CB5C22FA03F3094A67
:102968001360094B1B681846FEF7AAFD002318469A
:102978001037BD4680BD00BF002002400010024055
:1029880048970008000000200400002090B48AB096
:1029980000AF294B3C1D0FCB84E80F0040F2012308
:1029A8003B800023FB610023BB6100237B62002383
:1029B8007B6100233B62214B5B68FB61FB6903F091
:1029C8000C03042B02D0082B03D02BE01C4B3B62DA
:1029D8002BE0FB699B0C03F00F0328333B4413F8EF
:1029E800243C7B61FB6903F48033002B12D0134B2A
:1029F8005B685B0C03F0010328333B4413F8283C65
:102A0800BB617B690E4A03FB02F2BB69B2FBF3F3BD
:102A18007B6204E07B690B4A02FB03F37B627B6AFF
:102A28003B6202E0064B3B6200BF3B6A1846283710
:102A3800BD4690BC704700BF3897000800100240A0
:102A480000127A0000093D0080B400AF024B1B68F9
:102A58001846BD4680BC70470000002080B500AF16
:102A6800FFF7F2FF0246054B5B681B0A03F00703FA
:102A78000349CB5C22FA03F3184680BD00100240DC
:102A88005897000880B500AFFFF7DEFF0246054BF8
:102A98005B68DB0A03F007030349CB5C22FA03F304
:102AA800184680BD001002405897000880B485B0D1
:102AB80000AF78600A4B1B680A4AA2FB03235B0A33
:102AC8007A6802FB03F3FB6000BFFB685A1EFA60DA
:102AD800002BF9D100BF00BF1437BD4680BC70473A
:102AE80000000020D34D621080B582B000AF78603E
:102AF8007B68002B01D101233FE07B6893F83D30D0
:102B0800DBB2002B06D17B68002283F83C20786872
:102B1800FEF7E0FB7B68242283F83D207B681B6876
:102B2800DA687B681B6822F40052DA60786800F083
:102B3800C7FC7B681B681A697B681B6822F4904293
:102B48001A617B681B685A697B681B6822F02A0235
:102B58005A617B681B68DA687B681B6842F400521C
:102B6800DA607B6800221A647B68202283F83D20A3
:102B78007B68202283F83E20002318460837BD468C
:102B880080BD80B58AB002AFF860B9603B6013467B
:102B9800FB8000237B61FB6893F83D30DBB2202B80
:102BA8007CD1BB68002B02D0FB88002B01D101230C
:102BB80075E0FB6893F83C30012B01D102236EE0ED
:102BC800FB68012283F83C20FB6800221A64FB683A
:102BD800212283F83D20FEF7B5FC7861FB68FA886E
:102BE8009A84FB68FA88DA84FB689B68B3F5805F8F
:102BF80008D1FB681B69002B04D10023FB61BB686B
:102C0800BB6103E0BB68FB610023BB61FB6800227A
:102C180083F83C202AE03B6800937B6900228021EE
:102C2800F86800F0B3FA0346002B01D0032336E01E
:102C3800FB69002B0BD1BB691B881A46FB681B6814
:102C4800C2F308025A60BB690233BB6107E0FB6943
:102C58001A78FB681B685A60FB690133FB61FB68E3
:102C6800DB8C9BB2013B9AB2FB68DA84FB68DB8C95
:102C78009BB2002BCFD13B6800937B690022402197
:102C8800F86800F083FA0346002B01D0032306E01E
:102C9800FB68202283F83D20002300E00223184629
:102CA8002037BD4680BD80B58AB002AFF860B960F4
:102CB8003B601346FB8000237B61FB6893F83E3042
:102CC800DBB2202B40F08C80BB68002B02D0FB8845
:102CD800002B01D1012384E0FB6893F83C30012BE1
:102CE80001D102237DE0FB68012283F83C20FB68C8
:102CF80000221A64FB68222283F83E20FB68002227
:102D08001A63FEF71FFC7861FB68FA889A85FB68EE
:102D1800FA88DA85FB689B68B3F5805F08D1FB68A1
:102D28001B69002B04D10023FB61BB68BB6103E076
:102D3800BB68FB610023BB61FB68002283F83C2071
:102D480043E03B6800937B6900222021F86800F08B
:102D58001DFA0346002B01D0032342E0FB69002B38
:102D68000CD1FB681B685B689BB2C3F308039AB27B
:102D7800BB691A80BB690233BB611FE0FB689B68B3
:102D8800B3F5805F07D0FB689B68002B0AD1FB680E
:102D98001B69002B06D1FB681B685B68DAB2FB690C
:102DA8001A7008E0FB681B685B68DBB203F07F03FE
:102DB800DAB2FB691A70FB690133FB61FB68DB8DD2
:102DC8009BB2013B9AB2FB68DA85FB68DB8D9BB24C
:102DD800002BB6D1FB68202283F83E20002300E0B8
:102DE800022318462037BD4680BD000080B58AB052
:102DF80000AF78607B681B681B687B627B681B6818
:102E0800DB683B627B681B685B69FB610023BB6115
:102E180000237B617B6A03F00F03BB61BB69002B56
:102E28000DD17B6A03F02003002B08D03B6A03F026
:102E38002003002B03D0786800F099FA7BE1BB6986
:102E4800002B00F0B180FB6903F00103002B05D1D2
:102E58003B6A03F49073002B00F0A6807B6A03F0B2
:102E68000103002B0AD03B6A03F48073002B05D0C2
:102E78007B681B6C43F001027B681A647B6A03F071
:102E88000403002B0AD0FB6903F00103002B05D0D3
:102E98007B681B6C43F002027B681A647B6A03F050
:102EA8000203002B0AD0FB6903F00103002B05D0B5
:102EB8007B681B6C43F004027B681A647B6A03F02E
:102EC8000803002B0FD03B6A03F02003002B04D12A
:102ED800FB6903F00103002B05D07B681B6C43F0F2
:102EE80008027B681A647B681B6C002B00F01E814B
:102EF8007B6A03F02003002B07D03B6A03F0200312
:102F0800002B02D0786800F032FA7B681B685B6996
:102F180003F04003002B14BF01230023DBB27B61C5
:102F28007B681B6C03F00803002B02D17B69002B24
:102F380031D0786800F074F97B681B685B6903F02E
:102F48004003002B23D07B681B685A697B681B6889
:102F580022F040025A617B689B6B002B13D07B6880
:102F68009B6B764A5A637B689B6B1846FEF7B2FCEC
:102F78000346002B16D07B689B6B5B6B7A68926B61
:102F8800104698470EE0786800F0ECF80AE0786898
:102F980000F0E8F806E0786800F0E4F87B680022C2
:102FA8001A64C3E000BFC1E07B681B6B012B40F0D3
:102FB800A1807B6A03F01003002B00F09B803B6A22
:102FC80003F01003002B00F095800023FB607B6862
:102FD8001B681B68FB607B681B685B68FB60FB68A1
:102FE8007B681B685B6903F04003002B4ED07B684D
:102FF8009B6B1B685B683B823B8A002B00F09880C8
:103008007B689B8D3A8A9A4280F092807B683A8AE4
:10301800DA857B689B6B9B69202B2BD07B681B68B0
:10302800DA687B681B6822F48072DA607B681B6848
:103038005A697B681B6822F001025A617B681B6829
:103048005A697B681B6822F040025A617B6820221B
:1030580083F83E207B6800221A637B681B68DA6865
:103068007B681B6822F01002DA607B689B6B18464D
:10307800FEF7F6FB7B689A8D7B68DB8D9BB2D31AD3
:103088009BB21946786800F076F851E07B689A8D13
:103098007B68DB8D9BB2D31A7B827B68DB8D9BB20E
:1030A800002B47D07B8A002B44D07B681B68DA68EA
:1030B8007B681B6822F49072DA607B681B685A6927
:1030C8007B681B6822F001025A617B68202283F822
:1030D8003E207B6800221A637B681B68DA687B687D
:1030E8001B6822F01002DA607B8A1946786800F0C3
:1030F80042F81FE07B6A03F08003002B08D03B6A8C
:1031080003F08003002B03D0786800F0C9F812E0C0
:103118007B6A03F04003002B0DD03B6A03F04003A9
:10312800002B08D0786800F00AF904E000BF02E03C
:1031380000BF00E000BF2837BD4680BD81320008CF
:1031480080B483B000AF786000BF0C37BD4680BC48
:10315800704780B483B000AF786000BF0C37BD46BD
:1031680080BC704780B483B000AF786000BF0C3774
:10317800BD4680BC704780B483B000AF78600B4612
:103188007B8000BF0C37BD4680BC704780B584B0DB
:1031980000AFF860B9603B601346FB712CE0BB6977
:1031A800B3F1FF3F28D0BB69002B07D0FEF7CAF95F
:1031B80002463B68D31ABA699A421DD2FB681B685B
:1031C800DA68FB681B6822F4D072DA60FB681B6857
:1031D8005A69FB681B6822F001025A61FB682022C9
:1031E80083F83D20FB68202283F83E20FB680022FC
:1031F80083F83C2003230FE0FB681B681A68BB6850
:103208001340BA689A420CBF01230023DBB21A4666
:10321800FB799A42C3D0002318461037BD4680BDBB
:1032280080B483B000AF78607B681B68DA687B681D
:103238001B6822F49072DA607B681B685A697B68A5
:103248001B6822F001025A617B681B6B012B07D1B6
:103258007B681B68DA687B681B6822F01002DA60FA
:103268007B68202283F83E207B6800221A6300BF17
:103278000C37BD4680BC704780B584B000AF78601D
:103288007B685B6AFB60FB680022DA85FB680022CA
:10329800DA84F868FFF766FF00BF1037BD4680BDC7
:1032A80080B485B000AF78607B6893F83D30DBB2BE
:1032B800212B3ED17B689B68B3F5805F14D17B6876
:1032C8001B69002B10D17B681B6AFB60FB681B889D
:1032D8001A467B681B68C2F308025A607B681B6A3F
:1032E8009A1C7B681A6208E07B681B6A591C7A681A
:1032F80011621A787B681B685A607B68DB8C9BB20A
:10330800013B9BB27A681946D184002B0FD17B68A8
:103318001B68DA687B681B6822F08002DA607B68C9
:103328001B68DA687B681B6842F04002DA60002399
:1033380000E0022318461437BD4680BC704780B5AC
:1033480082B000AF78607B681B68DA687B681B68AE
:1033580022F04002DA607B68202283F83D207868FA
:10336800FFF7EEFE002318460837BD4680BD80B53E
:1033780086B000AF78607B6893F83E30DBB2222BD2
:1033880040F099807B689B68B3F5805F17D17B68B4
:103398001B69002B13D100237B617B689B6A3B610F
:1033A8007B681B685B689BB2C3F308039AB23B69EE
:1033B8001A807B689B6A9A1C7B689A6226E07B6805
:1033C8009B6A7B6100233B617B689B68B3F5805FE8
:1033D80007D07B689B68002B0AD17B681B69002B90
:1033E80006D17B681B685B68DAB27B691A7008E0F3
:1033F8007B681B685B68DBB203F07F03DAB27B692A
:103408001A707B689B6A5A1C7B689A627B68DB8DA2
:103418009BB2013B9BB27A681946D185002B48D1F3
:103428007B681B68DA687B681B6822F02002DA6018
:103438007B681B68DA687B681B6822F48072DA6034
:103448007B681B685A697B681B6822F001025A6115
:103458007B68202283F83E207B681B6B012B23D1DD
:103468007B6800221A637B681B68DA687B681B68C4
:1034780022F01002DA607B681B681B6803F01003F7
:10348800102B0AD10023FB607B681B681B68FB605C
:103498007B681B685B68FB60FB687B689B8D1946D3
:1034A8007868FFF768FE02E07868FFF752FE0023AD
:1034B80002E0002300E0022318461837BD4680BD0D
:1034C80080B584B000AF78607B681B681B6923F403
:1034D80040517B68DA687B681B680A431A617B681D
:1034E8009A687B681B691A437B685B691343BB60F6
:1034F8007B681B68DB6823F4B05323F00C037A68FD
:103508001268B9680B43D3607B681B685B6923F456
:1035180040717B689A697B681B680A435A617B68BB
:103528001B682C4A934203D1FFF7ACFAF86002E01B
:10353800FFF794FAF860FA6813469B0013449A0060
:103548001A447B685B689B00B2FBF3F3224AA2FB38
:1035580003235B091901FA6813469B0013449A0078
:103568001A447B685B689B00B2FBF3F21A4BA3FB1F
:1035780002035B09642000FB03F3D31A1B013233F7
:10358800154AA2FB03235B0903F0F0031944FA6808
:1035980013469B0013449A001A447B685B689B009F
:1035A800B2FBF3F20C4BA3FB02035B09642000FBA4
:1035B80003F3D31A1B013233074AA2FB03235B0927
:1035C80003F00F027B681B680A449A6000BF10373B
:1035D800BD4680BD003801401F85EB510C480D49A0
:1035E8000D4A002302E0D458C4500433C4188C4256
:1035F800F9D30A4A0A4C002301E013600432A242BC
:10360800FBD3FDF70DFE00F00FF8FDF7F3FC704754
:1036180000000020B8090020749B0008B8090020A9
:10362800000B0020FEE7000070B50D4E0D4D761B17
:10363800B61006D0002455F8043B01349847A6423A
:10364800F9D1094E094D06F043F8761BB61006D09D
:10365800002455F8043B01349847A642F9D170BDBF
:10366800689B0008689B0008709B0008689B00081E
:10367800830730B548D0541E002A3FD00346CAB24B
:1036880001E0013C3AD303F8012B9D07F9D1032C43
:103698002DD9CDB245EA05250F2C45EA054536D981
:1036A800A4F1100222F00F0C03F1200EE6444FEAB9
:1036B800121C03F1100242E9045542E90255103286
:1036C8007245F8D10CF1010214F00C0F03EB021251
:1036D80004F00F0C13D0ACF1040323F003030433FC
:1036E800134442F8045B9342FBD10CF003042CB161
:1036F800CAB21C4403F8012B9C42FBD130BD64467E
:103708001346002CF4D1F9E703461446BFE71A46DE
:10371800A446E0E720F0030110F00300C0F1000028
:1037280051F8043B00F1040C4FEACC0C6FF0000296
:103738001CBF22FA0CF213434FF0010C4CEA0C2C7C
:103748004CEA0C4CA3EB0C0222EA030212EACC125C
:1037580004BF51F8043B0430F4D0C2F1000102EA7E
:103768000102B2FA82F2C2F11F0200EBD2007047E6
:103778008C4630B504466FF000451346084A9BB0A6
:103788001068084A694603926246059502950094B6
:10379800049400F037F80022009B1A701BB030BD6B
:1037A8000C0000200802FFFF024B13B1024800F092
:1037B80005B8704700000000D13700080023014613
:1037C8001A46184601F070BD38B5084B084D5B1B0A
:1037D8009C1007D0043B1D44013C55F80439984718
:1037E800002CF9D1BDE8384005F078BF749B00087B
:1037F800709B0008704700BF704700BF704700BF4C
:10380800704700BF2DE9F04FD5B00C460C9191469A
:103818000E930A9002F0DAFE036818461793FFF732
:1038280079FFA3891690190603D52369002B00F0A8
:103838008F8700242BAB224698464D46CDE9294474
:103848002893129400230024CDE914342B78CDE971
:103858001922CDE91B2218920892002B00F0CE8184
:10386800AA4604E01AF8013F002B00F00981252B35
:10387800F8D1BAEB050640F007819AF80030002B22
:1038880000F0BC8100234FF0FF324FF02B092024B9
:103898001F469AF8016007920AF1010A8DF88330F1
:1038A80009930AF1010AA6F120035A2B00F220819C
:1038B800DFE813F0CA021E011E01C5021E011E0127
:1038C8001E01A3021E011E016A00F3021E01470227
:1038D800D9021E01D4025B005B005B005B005B0049
:1038E8005B005B005B005B001E011E011E011E01E8
:1038F8001E011E011E01B0011E010B027A00B0015B
:10390800B001B0011E011E011E011E019E021E0112
:103918001E01B6001E011E011E0119021E014C02E5
:103928001E011E013F071E011E011E011E011E0170
:103938001E011E011E01B0011E010B027C00B00118
:10394800B001B00191027C0075001E0184021E01C5
:103958007002B8005E0275001E01190272001C0791
:103968001E011E011F071E0172000022A6F130036E
:103978001AF8016B02EB820203EB4202A6F1300354
:10398800092BF5D909928EE70E9B53F8042B002AD0
:1039980009920E93C0F2D2819AF8006081E79AF8F2
:1039A800006047F020077CE747F01007BA060E9B37
:1039B80040F17D81073323F007031A465B6852F80C
:1039C800084B99460E92002BC0F27F85079B013366
:1039D80001F0398054EA090327F0800B00F00585CF
:1039E8000A2C79F1000380F0938701235F46303475
:1039F8008DF84F410B930DF24F15079A0B99002341
:103A08008A42B8BF0A4606929DF883200D930F9309
:103A180013931093002A7CD0069B0133069378E019
:103A280047F0100717F0200900F032810E9B07338A
:103A380023F00703D3F8049053F8084B0E930023A0
:103A480027F4806B00228DF88320079A511C00F020
:103A58002A8254EA09012BF0800740F02382002AC9
:103A680041F02B80002B40F0C5841BF001030B9321
:103A780000F0548530230DF24F158DF84F31BCE717
:103A8800BAEB050600F0BA802A9BC8E90056334411
:103A98002A93299B0133072B299305DC08F1080891
:103AA800089B33440893E8E60C990A9828AA03F07F
:103AB800B3FC80B90DF1AC08F2E70C990A9828AA72
:103AC80003F0AAFC002800F08A800D9B1BB10D9919
:103AD8000A9802F07BFC0C9B9B8913F0400F089B13
:103AE80018BF4FF0FF330893089855B0BDE8F08F22
:103AF800002E00F08380012300228DF8EC600693ED
:103B08003BAD8DF883200B930D9207920F92139281
:103B1800109217F0020302D006990231069117F0AD
:103B2800840B07D109990698A1EB0009B9F1000F98
:103B380000F336832A9C82B10122C8F80420299A0E
:103B4800013401320DF18301072A2A942992C8F819
:103B5800001000F3698308F108087BB10223C8F854
:103B68000430299B0234013321AA072B2A94299374
:103B7800C8F8002000F36C8308F10808BBF1800F37
:103B880000F02E82079B0B9AA3EB020BBBF1000FF0
:103B980000F37182FB0500F1C5810B9BC8F800504A
:103BA8001C44C8F80430299B2A940133072B299315
:103BB80000F3EA8208F108087B0705D5099B069AF5
:103BC8009D1A002D00F35083DDE9083206998A42D8
:103BD800ACBF9B185B180893002C7FF46EAF0023D2
:103BE80029930D9B1BB10D990A9802F0EFFB5546DE
:103BF8000DF1AC082B78002B7FF432AE2A9B002BFA
:103C08003FF469AF0C9C0A98214628AA03F004FCEB
:103C1800A38962E70E9B073323F00702F2E8023418
:103C2800CDE91434DDE9143424F0004499461846EB
:103C38000E9221464FF0FF32B64BFCF7BDFF00282D
:103C480040F09684484621464FF0FF32B14BFCF7CE
:103C580095FF002840F08C84DDE914010022002340
:103C6800FCF782FF002840F0A6879DF883200021FA
:103C78000320A94DA94B27F080070D910690472EE8
:103C8800C8BF1D4607910B900F9113911091C1E683
:103C980017F0100340F0628417F0400200F07B87B1
:103CA8000E9A994652F8044B0E92A4B2C7E653F8FE
:103CB800044B0E93FB0600F141847D0640F13B84E2
:103CC80044F3C0394B4624B27DE6012000220E9B06
:103CD800069053F8041B3BAD8DF883208DF8EC104B
:103CE8000E930B9010E74FF000090E9C079B54F8B9
:103CF800045B8DF88390002D00F0EE865A1C00F0CE
:103D080060851A464946284602F010FF0D900028A3
:103D180001F09E800D9B9DF883205B1B0B9323EA8B
:103D2800E373CDF81C900E940693CDF83490CDF83B
:103D38003C90CDF84C90CDF840906BE6099B5B42E7
:103D480009939AF8006047F00407AAE547F0100BBA
:103D58001BF0200900F0AA830E9B073323F007030A
:103D68001A4652F8084BD3F804900E92012369E6DC
:103D7800302278260E9B8DF8842053F8044B684A2D
:103D88000E934FF00009022347F0020B8DF885606F
:103D9800189257E6BD0600F1D683FC0600F193861B
:103DA800780600F15D87B90540F18D860E9B08996C
:103DB80053F8042B554611700E931BE79AF80060D0
:103DC8006C2E03BF9AF8016047F020070AF1010A38
:103DD80047F0100765E59AF80060682E03BF9AF867
:103DE800016047F400770AF1010A47F0400758E5F7
:103DF8009AF8006047F0080753E50A9E304602F03B
:103E0800E5FB436818461B93FFF784FC03463046DE
:103E18001C931E4602F0DAFB83681993002E3FF4C8
:103E2800BBAD199B002B3FF4B7AD199B1B78002B3A
:103E38003FF4B2AD9AF8006047F4806731E59AF82C
:103E4800006047F001072CE59DF88330002B7FF4D4
:103E5800A3AD9AF800608DF8834022E59AF80060D7
:103E680047F080071DE5524612F8016B2A2E01F033
:103E7800EB81A6F13003092B924698BF002201F28C
:103E880003801AF8016B02EB820203EB4202A6F1EF
:103E98003003092BF5D9079205E59AF800608DF8EB
:103EA8008390FEE4BB46012B3FF49AAD022B54AD40
:103EB80012D1189A04F00F03D35C240944EA097458
:103EC8004FEA191905F8013D54EA0903F2D154AB38
:103ED8005B1B5F460B9390E504F00703E40844EA94
:103EE80049744FEAD909303354EA09012A4605F8DA
:103EF800013DF1D11BF0010FE9D0302BE7D0302381
:103F0800023A05F8013C54AB9B1A5F4615460B93E1
:103F180073E500BFFFFFEF7F64970008689700080C
:103F280074970008652E40F3E980DDE9140100224A
:103F38000023FCF70FFE002800F0D2810123C8F807
:103F48000430299BBF4A01330134072B2A94299353
:103F5800C8F8002000F37A8508F10808229B129A15
:103F6800934280F2D782169B179A1C44C8E9002313
:103F7800299B2A940133072B299300F3DD8308F149
:103F88000808129B5D1E002D7FF716AE102D41F319
:103F98004181DFF8B492224649461026B946299B4A
:103FA8000F46DDF828B00C9C05E008F10808103D24
:103FB800102D40F3588501331032072BC8E90076DD
:103FC800CDE92932F1DD2146584628AA03F024FA22
:103FD80000287FF47AADDDE929320DF1AC08E6E777
:103FE800099B069AA3EB020BBBF1000F7FF7CAAD42
:103FF800BBF1100F41F30580DFF84C924146204693
:10400800A8464C461023299A0C9DDDF8289006E016
:10401800ABF1100BBBF1100F01F1080119DD0132F2
:104028001030072AC1E90043CDE92920F0DD2946EF
:10403800484628AA03F0F0F900287FF446ADDDE9E8
:104048002920ABF1100BBBF1100F4FF010032BA977
:10405800E5DC4546A1468846044601325C44072A09
:10406800CDE92924C8F80090C8F804B000F31885F1
:1040780008F1080886E5BBF1100F40F39785DFF8D3
:10408800C89141462046A8464C461023299A0C9DC3
:10409800DDF8289006E0ABF1100BBBF1100F01F131
:1040A800080119DD01321030072AC1E90043CDE9C2
:1040B8002920F0DD2946484628AA03F0ADF9002852
:1040C8007FF403ADDDE92920ABF1100BBBF1100F34
:1040D8004FF010032BA9E5DC4546A1468846044667
:1040E80001325C44072ACDE92924C8F80090C8F8B1
:1040F80004B000F3CE8108F108084BE5129B012BB0
:1041080040F37E810123299E01341E44072EC8F8FE
:1041180000502A94C8F80430299600F3E18108F188
:104128000808169B0136179A1C44072EC8E9002375
:10413800CDE9296400F3E18108F108080022DDE9EE
:1041480014010023FCF706FD002840F07681129B3D
:104158000136013B01351C44072EC8F8005029964A
:10416800C8F804302A9400F35B8108F108081A9B08
:1041780001361C44C8F80430072E24ABCDE9296465
:10418800C8F800307FF716AD0C990A9828AA03F0F2
:1041980043F900287FF499AC2A9C0DF1AC080BE593
:1041A800B9F1100F40F35086DDE929214046CDE9E9
:1041B8001D36B84610244F460C9EA9460A9D04E0B9
:1041C800103F102F00F1080016DD01321F4B10318F
:1041D800072AC0E90034CDE92921F1DD3146284616
:1041E80028AA03F019F900287FF46FACDDE929212A
:1041F800103F102F2BA8E8DC4D46DDE91D36B946E7
:104208004746804609EB010401321049072ACDE9E7
:104218002924C8F80490C8F8001000F3C3839DF857
:10422800832008F1080886E40C990A9828AA1D93A7
:1042380003F0F2F800287FF448AC2A9C1D9B0DF18E
:10424800AC088AE4A4970008B8970008A897000863
:104258000C990A9828AA03F0DFF800287FF435ACF7
:104268002A9C0DF1AC0889E4102D40F3C486102671
:10427800299B0A9FDDF8309004E0103D102D08F1CD
:10428800080817DD0133B84A1034072BC8E900269F
:10429800CDE92934F1DD4946384628AA03F0BCF8AF
:1042A80000287FF412ACDDE92934103D102D0DF102
:1042B800AC08E7DC0133AC4A2C44072BCDE92934A0
:1042C800C8F80450C8F800207FF77EAC0C990A980B
:1042D80028AA03F0A1F800287FF4F7AB2A9C73E41E
:1042E8002299002940F36F83DDF84090129B99458D
:1042F800A8BF9946B9F1000F0BDD299B4C44013347
:10430800072BC8E900592A94299300F31D8508F161
:104318000808109EB9F1000FA8BFA6EB0906002EE9
:1043280000F32582DDF840B07805AB4400F15F82E8
:10433800229B129A934202DBF90740F17684169A7F
:1043480017991444C8E90012299A2A940132072AB5
:10435800299200F3138508F10808129AAE18A6EB03
:104368000B06D51AAE42A8BF2E46002E0DDD299B9E
:1043780034440133072BC8F800B0C8F804602A9405
:10438800299300F3718508F10808002EA8BFAD1B1A
:10439800002D7FF711AC102D40F33C87DFF8CC914E
:1043A800224649461026B946299B0F46DDF828B013
:1043B8000C9C05E008F10808103D102D40F35383CC
:1043C80001331032072BC8E90076CDE92932F1DD37
:1043D8002146584628AA03F01FF800287FF475AB39
:1043E800DDE929320DF1AC08E6E7079B002B7FF4E5
:1043F800FCAA5F46002354AD07930B93FFF7FDBA61
:10440800FA073FF57FAE0123299E01341E44072E8B
:10441800C8F800502A94C8F8043029967FF7A5AE4A
:104428000C990A9828AA02F0F7FF00287FF44DABF0
:10443800DDE929640DF1AC0899E6129B5D1E002D9B
:104448007FF795AE102D40F3DF86224607974FF091
:10445800100BDFF818910A9C0C9F05E008F108087A
:10446800103D102D40F37F8301361032072EC8E926
:10447800009BCDE92962F1DD3946204628AA02F0E1
:10448800CBFF00287FF421ABDDE929620DF1AC08F0
:10449800E6E70C990A9828AA02F0BEFF00287FF4E4
:1044A80014AB2A9C0DF1AC08FFF774BB1BF010038A
:1044B8000E9A3AD11BF0400133D052F8044B99467A
:1044C8000E920123A4B2FFF7BDBA2D2364428DF8E2
:1044D8008330BB464FF0010369EB4909FFF7B5BAD2
:1044E8000C990A9828AA02F097FF00287FF4EDAAF1
:1044F800DDE929640DF1AC0813E60C990A9828AA9D
:1045080002F08AFF00287FF4E0AADDE929640DF1B2
:10451800AC0813E6FD077FF54FAB24E554ADFFF774
:104528006CBA1BF4007940F08A8352F8044B0123DB
:104538000E92FFF787BAB80500F19B834FEAE4793A
:104548004B46FFF740BA0E9B089853F8041BC21756
:104558005546C1E900020E93FFF74CBB0E9B53F87A
:10456800044B0E93FFF76BBAA8970008B89700089A
:10457800DDE9140102460B46FCF71EFB002840F05B
:10458800E985612E00F07D85412E00F08B84079B24
:10459800013300F08F8326F02003472B069300F0A9
:1045A8008F85DDE9141247F480730F931346002BAF
:1045B800C0F2B0850B9300238B461D930D93069B89
:1045C800462B00F0E983452B00F0468507990B9BA5
:1045D80001910221009126A9049123A9039122A9FE
:1045E8005A460A98029100F03BFF069B0546472B66
:1045F80040F03A8617F0010FB9460F9F40F0FE844D
:10460800269B5B1B1293069B472B00F06E83069B31
:10461800462B00F0F083229B1093109B069A013BD7
:10462800412A229300F0BB850021F2B2002B8DF8BD
:104638009020B6BF2D222B22109B8DF89120B8BF59
:10464800C3F10103092B40F39B850DF19F0C6246D2
:10465800B64F1C46104687FB0312D917C1EBA201BF
:1046680001EB8102A3EB42023032632C00F8012CEB
:104678000B4600F1FF32ECDC3033811EDBB28C4597
:1046880002F8013C40F2F9850DF1920101E012F8BF
:10469800013B944501F8013BF9D10DF1A1030DF15E
:1046A80092021B1A134424AA9B1A1A93129B1A9A51
:1046B800012B1A440B9240F381850B9B169A1344E5
:1046C8000B9300230B9A29F4806722EAE27247F4DD
:1046D80080770F930692139310931D9B002B40F045
:1046E8002C839DF883200793FFF794B9BB46FFF707
:1046F8002FBB8F4B189317F0200900F0F5800E9B05
:10470800073323F00703D3F8049053F8084B0E93AC
:10471800F80709D554EA090306D030238DF88560D7
:1047280047F002078DF88430022327F4806BFFF7E7
:1047380089B9804B1893DEE70C990A9828AA02F0E9
:104748006BFE00287FF4C1A92A9C0DF1AC0818E47F
:1047580040210A9801F03EFF0C9B18601861002860
:1047680000F0978540230C9A5361FFF762B8102E2A
:1047780040F37685DFF8C091424648462146A84670
:10478800B9464FF0100B0746299B0A9C0C9D04E084
:104798000832103E102E40F3138201331031072BDC
:1047A800C2E9007BCDE92931F2DD2946204628AA55
:1047B80002F032FE00287FF488A9DDE929312BAA0E
:1047C800E7E72846CDF81C900E94FEF7A3FF20EAF1
:1047D800E0739DF883200B90CDF83490CDF83C9091
:1047E800CDF84C90CDF840900693FFF713B9129B83
:1047F8004246DDF84C80EB185E460793CDF82CA0B6
:1048080010972146199FDDF87090DDF828A0DDF893
:1048180030B00F9B1395B8F1000F2ED083BB013F2A
:1048280008F1FF381B9B4944C2E90039299B2A91AA
:104838000133072B299360DC0832079B38789B1BD0
:104848008342A8BF0346002B1C460BDD2998194458
:1048580001300728C2E900632A91299000F31481E6
:1048680038780832002CB4BF0546051B002D0BDC38
:1048780006440F9BB8F1000FD0D1002B00F0268220
:104888000F9B013B0F93CDE7102D40F39D8410241F
:10489800299804E0103D102D02F1080216DD0130C0
:1048A800254B10310728C2E90034CDE92901F1DD93
:1048B8005946504628AA02F0AFFD00287FF405A902
:1048C800DDE92901103D102D2BAAE8DC01301A4B37
:1048D80029440728CDE929015560136000F3418276
:1048E800387808320644C4E717F0100300F0A080B7
:1048F8000E9B53F8044B0E930AE75946504628AAD4
:1049080002F08AFD00287FF4E0A82A992BAA94E7F0
:1049180000230BF480620696CDF82CA0CDF83480E5
:1049280092461E46DDF8648054AF14E067666666FA
:104938007497000888970008B89700080023204655
:1049480049460A22FCF776F90A2C79F100031BD3B1
:10495800044689462F4620460A2200234946FCF78A
:1049680069F930327D1E013607F8012CBAF1000FC3
:10497800E4D098F800309E42E0D1FF2EDED00A2C19
:1049880079F1000380F0308154AB5B1BDDF82CA07B
:10499800CDF8648012965F46069EDDF834800B934E
:1049A800FFF72BB80C990A9828AA1D9302F034FD3A
:1049B80000287FF48AA89DF883202A9C1D9B0DF16E
:1049C800AC08FFF7B8B80123C8F80430299BBC4AE3
:1049D80001330134072B2A942993C8F8002000F3E7
:1049E800178108F10808002940F08680129A07F01C
:1049F800010313433FF4E0A8169B17991A19C8E955
:104A08000013299B2A920133072B299300F337813E
:104A180008F10808129901338C18072BCDE92934BD
:104A2800C8F80050C8F804107FF7C4A8FFF7ACBB5B
:104A380017F0400200F0A5800E9A994652F8044BF0
:104A48000E92A4B264E6BB46FEF7CABF0C990A9858
:104A580028AA02F0E1FC00287FF437A82A9C0DF16F
:104A6800AC08FFF77BBA14463A464F4691460133E5
:104A78002C44072BC8F80090C8F80450CDE9293415
:104A88007FF798A8FFF780BB5946504628AA02F03E
:104A9800C3FC00287FF419A838782A992BAAE1E6E4
:104AA8000C990A9828AA02F0B7FC00287FF40DA8F0
:104AB8002A9C0DF1AC08FFF765B8012BBB467FF4C3
:104AC800F5A9FEF792BF0E9B089953F8042B55469B
:104AD80011600E93FFF78EB8062B294628BF0623D0
:104AE8002A4607950D950693764D0E940B930F91D4
:104AF80013911091FEF78EBF169B17981A19C8E9E3
:104B08000003299B2A920133072B299300F3B780CE
:104B180008F108080029BFF67DAF4E42103180F237
:104B2800A98341461024A846DFF89C91DDF828B0F7
:104B38000C9D04E00831103E102E40F3A78201338B
:104B48001032072BC1E90094CDE92932F2DD29465C
:104B5800584628AA02F060FC00287EF4B6AFDDE9CA
:104B680029322BA9E7E71446079F01362C44072E64
:104B7800CDE92964C8F80090C8F804507FF7F5AA71
:104B88004EE417F400790E9B66D053F8044B914617
:104B98000E93E4B2BCE517F400790E9B57D053F896
:104BA800044B91460E93E4B2FEF749BF299ADFF809
:104BB8001891FFF795BA2D228DF88320FFF757B883
:104BC800454690463A460C464F4691460133344492
:104BD800072BCDE92934C8F80090C8F804605CDCDC
:104BE80008F10808FFF79EBB1C9B1B99ED1A1A4693
:104BF800284602F0DDFB98F801300BB108F10108F6
:104C0800204649460A2200230026FCF713F89FE6AF
:104C18000C990A9828AA02F0FFFB00287EF455AFE9
:104C280022992A9C0DF1AC08DDE6129AAE18A6EB83
:104C38000B06D51AAE42A8BF2E46FFF7A6BB52F800
:104C4800044B894601230E92E4B2FEF7FBBE53F8EB
:104C5800044B0E93FEF7F3BE53F8044B0E9357E53F
:104C68000E9B089953F8042B554611800E93FEF7B6
:104C7800C1BF44F3C0194B4664B2FEF7A4BE0C99F9
:104C88000A9828AA02F0C8FB00287EF41EAFDDE9C6
:104C9800293222990DF1AC083CE70C990A9828AA08
:104CA80002F0BAFB00287EF410AF2A9C0DF1AC0884
:104CB800FFF738BB0623079326F02003069370E41A
:104CC800A49700089C970008B8970008DDE91235FA
:104CD800EB189E42B346199790460C4628BF9B4650
:104CE800DDF82CA0109FFFF723BB229BDA1C109342
:104CF80002DB079A934204DD023E26F02003069366
:104D08008BE4109B129A9342C0F2C28019F0010FF3
:104D180000F01D82169A13440B9319F4806F00F06B
:104D28001482109B6726002B76DC0B9B23EAE37327
:104D3800069300230F931393CFE42D2200238DF8BD
:104D480083200793FEF768BE0C990A9828AA02F0F8
:104D580063FB00287EF4B9AE2A9C0DF1AC08FFF77E
:104D6800D8BA5946504628AA02F056FB00287EF4C5
:104D7800ACAE38782A992BAA06447AE50C990A9899
:104D880028AA02F049FB00287EF49FAE229B2A9CA9
:104D98000DF1AC08FFF7E1BA07990B9B01910321CC
:104DA800009126A9049123A9039122A95A460A9899
:104DB800029100F055FB03780546302B00F016826F
:104DC800229B079AB94613440F9FEC1858460022B5
:104DD80000230B99FBF7BEFE08B1234611E4269B7E
:104DE800A342BFF40EAC30215A1C26921970269BA0
:104DF8009C42F9D805E4229A002A109240F30E82C8
:104E0800079909F001030B4340F07E816626109B49
:104E18000B9319F4806F88D019990B78FF2B00F049
:104E280025820024109A204604E001300131FF2B2E
:104E380000F05981934280F25681D21A4B78002BA8
:104E4800F3D10B780134F2E7DDE92921FFF7DAB96C
:104E5800079B9DF883200E9406930B9307900F9061
:104E680013901090FEF7D6BD0C990A9828AA02F064
:104E7800D3FA00287EF429AE229D129B2A9C0DF1BC
:104E8800AC085D1BFFF781BA00230793FEF70BBD43
:104E9800129B169A9A18109B0B92002B40F385814F
:104EA8006726B6E730238DF8843058238DF885308F
:104EB800079B47F00204632B00F3C48000233BAD3B
:104EC8000D9347F481730F93DDE914121346002BF9
:104ED8002746C0F284800B9300238B461D9326F04F
:104EE80020030693612E00F01881412E7FF467ABF2
:104EF80022AA58460B9902F011FA00224FF07F536C
:104F0800FBF7C0FB02460B46CDE910230022002325
:104F1800FBF720FE08B101232293AD4B0B93079BAF
:104F2800CDE912A6CDE91E78DDE91067AB46DDF8BC
:104F38002CA003F1FF39109506E00022002309F1A7
:104F4800FF39FBF707FEE8B90022A24B3046394685
:104F5800FBF798FB0F460646FBF744FE0446FBF7B3
:104F680027FB0B46024639463046FBF7D3F91AF8B9
:104F78000430B9F1FF3FD8464D4606460F460BF8B8
:104F8800013BDAD1304639460022934BA946DDF879
:104F980048A0109DCDF84880CDE91001DDF87C804F
:104FA800139E1E9FFBF7FEFD80BBDDE9100100226A
:104FB800894BFBF7CFFD08B1E10727D44B46002BFF
:104FC80006DB302201335B440BF8012B5B45FBD138
:104FD800ABEB0503B94612930F9FFFF714BB26F0FE
:104FE800200306932D22DDE914349B4604F1004387
:104FF8001D920B9376E7299BFFF75CB9079BEC188A
:10500800E4E6299ADFF8D491FFF727B8129B269394
:105018000B9B1BF8012CD97B5B468A4209D13020B7
:1050280003F8010C269B5A1E269213F8012C914274
:10503800F6D0392A0BBF0B9A0132927AD2B203F812
:10504800012CC5E70A98591C01F0C4FA0546002846
:1050580000F017810D9034E70221009107995A4614
:105068004C1C26A9049123A9039122A90B9B0A98F9
:105078000194029100F0F4F90546B9462C440F9FBB
:10508800A4E630238DF8843078230FE74546884618
:1050980001333244072BCDE92932C8F80090C8F80B
:1050A80004607FF7B5AC0C990A9828AA02F0B4F905
:1050B80000287EF40AADDDE929320DF1AC08A9E437
:1050C800079B002B08BF0123079347F480730F93B6
:1050D800159B002BC0F2B680DDF850B00D900B93F5
:1050E8001D90FFF773BA1991109213900F940F9AAD
:1050F800139B1C9913440B9A01FB03230B9323EA7C
:10510800E3730693FFF7E9BA169B6626D31819448A
:105118000B917EE600230D9364E722AA58460B996B
:1051280002F0FCF800224FF07F53FBF7ABFA02467F
:105138000B46CDE9102300220023FBF70BFD08B135
:1051480001232293264B0B93E9E66726EDE5109B96
:105158000B93E2E5159B0320002BB8BF2D224FF0DF
:105168000003A8BF9DF8832019460D931D4D1E4BC3
:10517800B8BF8DF8832027F080070690FEF77FBD23
:10518800002944D130228DF892200DF1930230335A
:1051980002F8013B24ABD31A1A93FFF787BA06F13A
:1051A8000F020121D2B2FFF741BAC3F101031A4439
:1051B80022EAE27367260B920693BAE519F0010F0B
:1051C8003FF47FAAFFF779BA2998FFF77FBB00BFA2
:1051D80088970008000030400000E03FB8970008BA
:1051E800749700086C9700087097000858460022CA
:1051F80000230B99FBF7AEFC00287FF4E1AD079B79
:10520800C3F101032293DCE5DFF89890ADE40DF1DA
:105218009202BCE7299BDFF88C9028E4079A09F0F2
:10522800010959EA020304D10123662606930B9368
:105238007FE5169B662601331A4422EAE2730B9235
:10524800069376E50D90CDE60E9B9AF8016092469E
:1052580053F8042B0E9342EAE2730793FEF721BB3F
:10526800299BDFF84090B1E4079C06E700230F93E1
:1052780013933CE7DFF82C900AE702231A93FFF711
:1052880015BA0C998B8943F0400213468A81FEF7C0
:1052980024BC4FF0FF320C2308920A9A1360FEF7E1
:1052A80023BC00BFB89700082DE9F047DFF87CA0C1
:1052B8000646DAF8000098460F469146FEF79EFA31
:1052C8001B4B1B68D3F8484124B365681F2D26DCA7
:1052D8005EB96B1C0235DAF80000636044F825708B
:1052E800FEF78EFA0020BDE8F087012304EB850164
:1052F800C1F88890D4F88821AB401A43022EC4F82C
:105308008821C1F80881E4D1D4F88C211343C4F86A
:105318008C31DEE703F5A674C3F84841D5E7DAF81F
:105328000000FEF76DFA4FF0FF30DCE7380400208C
:10533800609700082DE9F04F03690C6985B0A34216
:10534800C0F28980013C01F11405A30000F11408A2
:10535800019355F8243058F8242001338A469A429C
:1053680008EB84018146B2FBF3F605EB8407029152
:105378003AD30021AE4640460A46A34603955EF856
:10538800045B0468ABB206FB03132D0C190C06FB77
:1053980005119BB2D21A1FFA84FC94448AB2C2EB5C
:1053A800144202EB2C421FFA8CFC4CEA024377456C
:1053B80040F8043B4FEA11414FEA2242DFD2019BF9
:1053C8005C4658F80330039D73B9029B043B98452B
:1053D80004D307E0984504F1FF3403D253F80429B5
:1053E800002AF7D0C9F810405146484601F06EFE31
:1053F80000282CDB40460023013655F8041BD0F862
:1054080000C08AB29A1A1FFA8CFE0B0C7244C3EBC6
:105418001C4303EB224392B242EA0342AF4240F8F4
:10542800042B4FEA2343E8D258F8242008EB8403DE
:105438006AB9043B984504D307E0984504F1FF3462
:1054480003D253F80429002AF7D0C9F8104030468F
:1054580005B0BDE8F08F002005B0BDE8F08F00BFB3
:105468002DE9F04F90469946016C99B00446CDE974
:105478000489259D41B10123426C93408B604A60A9
:1054880001F0CEFB00232364B9F1000AB4BF012365
:1054980000232B60764BBCBF2AF0004ACDF814A03D
:1054A80033EA0A0300F0AA80DDE90423104619460E
:1054B80000220023CDE90A01FBF74CFB074670B137
:1054C8000123249A1360269B002B00F0E68269488A
:1054D8001860431E0393039819B0BDE8F08F16AB0C
:1054E800019317AB00932046DDE90A2301F0B4FECF
:1054F8005FEA1A56054640F09780DDE916763E4485
:1055080006F23240202840F3B783C0F140000AFA7F
:1055180000FA06F2124028FA00F04AEA0000FBF707
:1055280037F80123013E0F93A1F1F8710022524B85
:10553800FAF7F0FE48A3D3E90023FBF7A3F848A342
:10554800D3E90023FAF7E8FE804630468946FBF7A0
:105558002FF845A3D3E90023FBF794F802460B463E
:1055680040464946FAF7D8FE80468946FBF73AFB9B
:1055780000228346002340464946FBF7F5FA0028F7
:1055880040F07E82BBF1160F00F26D82DDE90A0160
:105598003A4B03EBCB03D3E90023FBF7E5FA0028EA
:1055A80072D00023BE1B0E93731E0BF1FF3B0693B4
:1055B80000F1608200230993BBF1000F6BDA099BAD
:1055C800CDF81CB0A3EB0B030993CBF100030D93AB
:1055D800229B4FF0000B092B66D8052B40F34A831A
:1055E8000026043B2293229B023B032B00F26C868D
:1055F800DFE813F061045E045504380442F20F73C7
:10560800249ACAF3130A13605AEA08031AD1269B8C
:10561800002B00F068861A4B03930833269A0398E8
:10562800136019B0BDE8F08FDDE90A12C2F3130365
:10563800084643F07F510F97A6F2FF36169F41F4B4
:10564800401173E7269B002B40F0EF830D4B03932B
:1056580041E700BFAFF3008061436F63A787D23F84
:10566800B3C8608B288AC63FFB799F501344D33F49
:105678000000F07FA59700080000F83F189900087F
:10568800CC970008C8970008BE1B731E069300F14C
:105698008A840E900990069B5B44CDE9063B002363
:1056A8000D93229B092B98D9002322934FF0FF33A7
:1056B8000126089300230C9623930021089B61641C
:1056C8001293204601F086FA0390002800F0048621
:1056D800039B2364089B0E2B00F21481002E00F01C
:1056E80011810799002940F36084AF4B01F00F0244
:1056F80003EBC2030A46D3E900674FEA2118D10534
:1057080040F11784DDE90A01A84B4FF0030AD3E9F9
:105718000823FBF7E1F8CDE9100108F00F08B8F10C
:10572800000F13D0DFF8849218F0010F09D0D9E9DF
:10573800002330463946FAF7A5FF06460F460AF118
:10574800010A5FEA680809F10809EDD1DDE91001ED
:1057580032463B46FBF7C0F8804689460E9B43B16C
:10576800002240464946924BFBF7FEF9002840F0DC
:1057780035855046FAF71CFF42464B46FAF782FF3A
:105788008C4B0022FAF7C8FDA1F15073CDE9100146
:105798001193089B002B00F09780079B1493089B9C
:1057A80013930C9B002B00F0A984139A7E4B0020C6
:1057B80003EBC20353E902237F49FBF78DF8DDE9C8
:1057C8001023FAF7A7FDCDE9100149464046FBF73B
:1057D80009FA0746FAF7ECFE02460B4640464946E8
:1057E800FAF798FDDDE91023039E303706F8017BB0
:1057F80080468946FBF7B8F9002840F02E85CDF899
:1058080054B00027DDE910AB1095139D13942AE0DE
:105818000137AF4280F22E85504659460022674B29
:10582800FAF730FF0022654B82468B4640464946D0
:10583800FAF728FF89468046FBF7D4F90446FAF7B9
:10584800B7FE02460B4640464946FAF763FD303438
:1058580052465B4606F8014B80468946FBF784F9B9
:10586800002840F0F88442464B4600205049FAF799
:1058780051FD52465B46FBF777F90028C8D0DDE9B1
:105888001343109D039A079302E0964200F0CD84DB
:10589800B24616F8013D392BF7D00133DBB233702D
:1058A800079B01330793C8E15046FAF781FE424649
:1058B8004B46FAF7E7FE3F4B0022FAF72DFDA1F120
:1058C8005073CDE9100111934046494600223C4BE4
:1058D800FAF720FDDDE910894B46424606460F4699
:1058E800FBF760F98146002840F0AF84DDE910013C
:1058F800024601F1004330463946FBF735F90028E6
:1059080040F04883179B002BC0F28C80079A0E2A20
:1059180000F38880244B03EBC203D3E900AB239B3D
:10592800002B1BDA089B002B18DC40F03183002287
:10593800234B50465946FAF7A5FE02460B46DDE9C9
:105948000A01FBF71BF9DDF820904E46002800F00D
:10595800CA82239BDDF80C80DF43CCE25246DDE9A6
:105968000A785B4638464146FAF7B6FFFBF73AF93C
:1059780081460990FAF71CFE52465B46FAF782FE0A
:10598800039E0B46024641463846FAF7C3FC09F126
:10599800300306F8013B089B012B00F05F83069457
:1059A80001271C4604952AE018990008F098000879
:1059B8000000F03F00001C400000E03F00002440D1
:1059C8000000144052465B4640464946FAF784FFB9
:1059D800FBF708F90546FAF7EBFD52465B46FAF77E
:1059E80051FE01370B46024649464046FAF792FCFB
:1059F80005F13003A74206F8013B00F02C83002292
:105A0800AB4BFAF73FFE0022002380468946FBF79E
:105A1800A1F80028D6D0049D069C079BB246013306
:105A280007930AE10C9A002A3DD0229A012A40F3F2
:105A38009F82089B03F1FF380D9B4345C0F270829B
:105A4800A3EB0808089B002BC0F24083069A1A446F
:105A58000692099A17461A4409920121204601F034
:105A680087F9064623E00123BE1B0E93731E069397
:105A78007FF5A0ADC6F101030993002306939BE5CA
:105A88005846FAF795FD42464B46FBF763F800285F
:105A98007FF478AD0BF1FF3B74E5864B03930398D5
:105AA80019B0BDE8F08FDDF83480099F0C9E002FF7
:105AB8000CDD069900290B4608DDB942A8BF3B4614
:105AC800099AFF1AD21ACB1A099206930D9BE3B1D1
